:020000040800F2
:1000000000040020470100085501000857010008BE
:10001000590100085B0100085D01000800000000B4
:100020000000000000000000000000005F01000868
:10003000610100080000000063010008650100087C
:1000400067010008670100086701000867010008F0
:1000500067010008670100086701000867010008E0
:1000600067010008670100086701000867010008D0
:1000700067010008670100086701000867010008C0
:1000800067010008670100086701000867010008B0
:1000900067010008670100086701000867010008A0
:1000A0006701000867010008670100086701000890
:1000B0006701000867010008670100086701000880
:1000C0006701000867010008670100086701000870
:1000D00067010008BD1200086701000867010008F9
:1000E0006701000867010008670100086701000850
:1000F0006701000867010008670100086701000840
:10010000670100086701000867010008670100082F
:10011000670100086701000867010008670100081F
:10012000670100086701000867010008670100080F
:10013000DFF80CD000F086FA00480047491B0008A1
:1001400048020020704708488047084981F3088822
:1001500007480047FEE7FEE7FEE7FEE7FEE7FEE7AB
:10016000FEE7FEE7FEE7FEE7450100084802002043
:10017000310100082DE9FF4D86B0089A834623F02F
:10018000004301F0004421F00045129F801A4FF017
:10019000FF384FF0000A1E4675EB030108D259469E
:1001A000284635469346064608910FB184F0004430
:1001B0000023089886EA03015840084305D15846B1
:1001C00045EA04010AB0BDE8F08DC5F30A51C6F353
:1001D0000A50081ACDE90401C5F3130040F4801554
:1001E0000498402837DAC6F3130040F48018049AC4
:1001F0000898414637B100F0B1F9BBEB000065EB60
:10020000010104E000F0AAF910EB0B00694105467A
:1002100004980E46C0F140024146089800F08EF95D
:100220008346884677B1DBF1000B4FF0000368EBA3
:10023000480888EA03018BEA0300084302D05A1EEB
:10024000AD185641059BCDE900A4029343465A469A
:100250003146284612E057B1059BCDE900A41BEBBF
:100260000800029345EB08014346424606E0CDE90B
:1002700000A40291002301222946584600F099F972
:10028000A0E7F8B50D4607465940002001F00041AF
:100290004140404016461C46084301D0012300E07F
:1002A000002300932346324629463846FFF762FF73
:1002B000F8BDF8B50D4607465940002001F0004151
:1002C0004140404016461C46084301D0002300E050
:1002D000012300932346324629463846FFF74AFF5A
:1002E000F8BDF8B50D4607465940002001F0004121
:1002F0004140404016461C46084301D0002300E020
:10030000012300932B463A4621463046FFF732FF41
:10031000F8BD2DE9FF4D144681EA030200208AB0A2
:1003200002F00042CDE9080223F0004603460246EF
:100330000A9821F0004585EA03015040084306D0A1
:10034000002386EA030184EA0300084304D1002065
:1003500001460EB0BDE8F08DC5F30A51C6F30A5050
:1003600000270844A0F2F330C5F31302CDE90307D8
:1003700042F48015C6F3130242F48016BA46B8461A
:10038000BB46069725E0E00717D0049A0A98801824
:10039000024604900A9845EB0A0A121A7AEB050302
:1003A00001D2012000E00020C11710EB0800069ADE
:1003B0007941801841EB0B0B069018EB08000A9A64
:1003C0007F4140EAD57890186D4176080A904FEA4F
:1003D0003404002386EA030184EA03000843D2D1EF
:1003E000039BDDE90801CDE900010293534659461C
:1003F000049A069800F0DDF8ABE72DE9FF4D0546BD
:1004000081EA0302002086B002F0004223F0004699
:10041000CDE90402034621F0004484EA0301684068
:10042000084306D00023089886EA03015840084391
:1004300004D1002001460AB0BDE8F08DC4F30A5192
:10044000C4F31302C6F30A5042F480144FF0000BB9
:10045000C6F31302081A42F4801200F2FE305F461F
:100460004FF40016D846DA460992039011E0DDE910
:100470000823A81A74EB030106D3AD1A64EB030436
:1004800048EA07084AEA060A76084FEA37076D196C
:100490006441002386EA030187EA03000843E6D1AA
:1004A00084EA030185EA0300084315D0DDE9082347
:1004B00084EA030185EA0200084303D15D464FF058
:1004C000004409E0A81A74EB030102D201255C463E
:1004D00002E06FF001056C10DDE90401039BCDE93A
:1004E0000001029323462A465146404600F061F837
:1004F000A1E70EB5002140F233430091CDE901138D
:100500000B460A4600F055F803B000BD21F000414B
:100510000A0DC1F3130140F2FF3341F480119A42F6
:1005200001DA0020704740F233439A42A2F233428C
:1005300002DC524200F012B890407047202A04DBDF
:100540000023203A00FA02F106E000FA02F391409B
:10055000C2F12002D040014318467047202A04DB34
:10056000203A21FA02F000217047D040C2F1200366
:1005700001FA03F31843D14070470000F0B5044678
:100580000D46002003F000414140404017461E4602
:1005900008430BD0641C4FF0004386EA030145F189
:1005A000000557EA010001D124F001042046294644
:1005B000F0BD2DE9F00D88461D461943074600237E
:1005C000104359405840099E14464FF0FF3A0843E3
:1005D00011D1BDE8F00D01467047680804F0010232
:1005E00042EA340440EAC7755FEA58084FEA370721
:1005F00006F1010601E0DFF848B0BAEB07027BEB39
:100600000803EAD34FF4801A07E0FF1948EB080803
:1006100047EAD57724196D41761E381E78EB0A011A
:10062000F3D33305A3F58013381C48EB0301DDE950
:100630000723801859412B462246BDE8F00D9DE75F
:10064000FFFF1F00064C074D06E0E06840F0010385
:1006500094E8070098471034AC42F6D3FFF76CFDDE
:1006600060CF020880CF02080029816802D041F0E3
:10067000010101E021F0010181607047F0B591B006
:100680008026ADF82C6000248DF82F400BA935484A
:1006900000F0B6FA0121084600F02CFD01214802C5
:1006A00000F034FD304F384600F008F92F48009034
:1006B0002F48022501A931C1E8010690800007906A
:1006C000CDE90446202008900002CDE909046946DE
:1006D000384600F069F90121384600F0E5F8A80332
:1006E00000F0FEFC01208DF834008DF835004FF449
:1006F0006020CDE90E040C941C4C8DF840504C3C0D
:100700000CA9204600F04EF80523012210212046B6
:1007100000F06CF8052302220721204600F066F85D
:100720000121204600F026F8012000F0ADF801215B
:100730002046FFF799FF204600F092F8204600F08F
:100740002AF80028FAD1204600F099F8204600F057
:100750001BF80028FAD10121204600F086F811B0DC
:10076000F0BD000000080140080002404C24014098
:100770000C0000200029816802D041F4807101E062
:1007800021F4807181607047014689680020490723
:1007900000D501207047014689680020090700D56F
:1007A0000120704730B542680E4B0C791A400B6837
:1007B00042EA04221343436082680B4B4D791A408E
:1007C000D1E9024342EA4502234313438360C26AEC
:1007D000097C22F47002491EC9B242EA0151C16289
:1007E00030BD0000FFFEF0FFFDF7F1FF70B50726FA
:1007F00009290AD9C568A1F10A0404EB4404A640FA
:10080000B543A3401D43C56007E0056901EB410402
:10081000A640B543A3401D4305611F23072A09D203
:10082000446B521E02EB820293409C4391400C4366
:10083000446370BD0D2A09D2046BD21F02EB820201
:1008400093409C4391400C43046370BDC46A0D3ACD
:1008500002EB820293409C4391400C43C46270BD02
:10086000816841F00801816070470029816802D0E9
:1008700041F4A00101E021F4A0018160704781688A
:1008800041F004018160704706490028D1F808044E
:1008900002D040F4000001E020F40000C1F8080498
:1008A00070470000002001400029016802D041F09B
:1008B000010101E021F0010101607047026800219F
:1008C00022F001020260016041608160C160344930
:1008D000334A0839904203D1486840F00F0006E0DF
:1008E0002F4A1432904204D1486840F0F00048602A
:1008F00070472B4A2832904203D1486840F4706018
:10090000F5E7274A3C32904203D1486840F47040F2
:10091000EDE7234A5032904203D1486840F47020FA
:10092000E5E71F4A6432904203D1486840F4700002
:10093000DDE71B4A7832904203D1486840F070608E
:10094000D5E7184A904204D1D1F8040440F00F00D2
:1009500007E0144A1432904206D1D1F8040440F062
:10096000F000C1F8040470470E4A2832904204D1C6
:10097000D1F8040440F47060F3E70A4A3C32904234
:1009800004D1D1F8040440F47040EAE7054A50323B
:100990009042E8D1D1F8040440F47020E1E700006F
:1009A000080002400804024070B5026847F6F07380
:1009B0009A430D6A8B680C692B43D1E90565344372
:1009C0002343CC692B432343D1E909542B432343CD
:1009D00013430360CA6842600A6882604968C16064
:1009E00070BD00E0401E0028FCD170472DE9F043A7
:1009F000012197B0080200F07DFB01217C2000F06E
:100A000085FB4FF40056ADF804600327DFF8BC9077
:100A10008DF8067010258DF8075001A9484600F0A2
:100A2000EFF8DFF8AC800224ADF8044001A940469D
:100A300000F0E6F84CF23370ADF804008DF8067063
:100A400018208DF8070001A9484600F0D9F84FF6A4
:100A50008070ADF8040001A9404600F0D1F8802074
:100A6000ADF8040001A9484600F0CAF8A002ADF8AC
:100A7000040001A9484600F0C3F83146484600F09A
:100A800017F900200521CDE90410CDE902400690B8
:100A9000E106CDE90701099008210AAA23C20D90B9
:100AA0000E900F904902CDE910011290139014900E
:100AB00002A81590169009A800F01CF8012100204A
:100AC00000F008F817B0BDE8F08300000014014002
:100AD000001801404FF0204202EB8000002901681D
:100AE00002D041F0010101E0014A1140016070476C
:100AF000FEFF0F00F0B5D0E9023241681943D0E99A
:100B00000443224311431943D0E9062311431943F7
:100B1000D0E9082311431943D0E90A23114304689B
:100B200019434FF0204242F824108168082906D169
:100B3000016802EB81010B6843F040030B60016B1D
:100B4000D1E901431D020B68D1E9036743EA0413AD
:100B500045EA06452B43D1E9054543EA075343EAF5
:100B600004610368294302EB83035960816AB1F58C
:100B7000804F15D1416BD1E901431D020B68D1E9CA
:100B8000046743EA041345EA06548969234300686D
:100B900043EA07630B4302EB8000C0F80431F0BD69
:100BA00000686FF0704102EB8000C0F80411F0BDE6
:100BB00038B52020ADF8000010208DF80300032088
:100BC0008DF8020069460C4800F01AF80B4D4824D5
:100BD000ADF800406946284600F012F88DF8034051
:100BE00002208DF802000420ADF800006946284676
:100BF00000F006F838BD0000000C01400014014070
:100C0000F0B5CB780022DC0603F00F0301D58C7819
:100C100023430C884FF00F0C14F0FF0F4FF0010E20
:100C20001AD006680D880EFA02F42540A5420FD1AD
:100C300095000CFA05F726EA070703FA05F6CD78C2
:100C40003E43282D01D1446102E0482D00D10461CA
:100C5000521C082AE6D306600A88FF2A1ED9466875
:100C60005FF0000202F108050EFA05F40D88254038
:100C7000A5420FD195000CFA05F726EA070703FAFB
:100C800005F6CD783E43282D00D14461CD78482D1E
:100C900000D10461521C082AE4D34660F0BD02462C
:100CA000926800200A4200D00120704741617047DD
:100CB0000161704770B5824C02212046FFF7F6FFB4
:100CC000804D2846FFF78DFE02212046FFF7F0FFFA
:100CD0002846FFF786FE0021084600F001F90021B2
:100CE000084600F0FDF80021084600F0F9F8002160
:100CF000084600F0F5F84FF4C441201500F0F0F874
:100D000040F60801082000F0EBF84FF4406188102D
:100D100000F0E6F845F60B2140F2013000F0E0F873
:100D200040F6061140F2023000F0DAF841F2170105
:100D300040F2033000F0D4F84FF40C514FF44170FE
:100D400000F0CEF84FF4B85140F2053000F0C8F88A
:100D500046F2093140F2063000F0C2F840F609418F
:100D600040F2073000F0BCF841F20C014FF4427041
:100D700000F0B6F842F2322140F2093000F0B0F84B
:100D80001621102000F0ACF840F201131946112092
:100D900000F0A6F80021122000F0A2F80121132093
:100DA00000F09EF8A4154FF44C71204600F098F81E
:100DB00040F23721184600F093F84FF47061E01CC0
:100DC00000F08EF84FF4C2414FF4207000F088F824
:100DD0004CF2B011A01C00F083F82146012000F075
:100DE0007FF82146022000F07BF841F23001032019
:100DF00000F076F80121092000F072F800210C20A3
:100E000000F06EF8E101902000F06AF800210F2058
:100E100000F066F800214FF4047000F061F8EF2153
:100E200040F2112000F05CF8002140F2122000F0A6
:100E300057F840F28F1140F2132000F051F80021D2
:100E40004FF4A06000F04CF8002140F2015000F097
:100E500047F85F2140F2025000F042F8012140F2D1
:100E6000014000F03DF8002140F2044000F038F865
:100E70002146072000F034F863000021184600F0F6
:100E80002FF840F201240021204600F029F800212B
:100E9000184600F025F80021204600F021F8601CDB
:100EA0004FF0C0410880084A084B00204FF6FF7100
:100EB0001180401C9842FBD305490020086070BD9A
:100EC00000180140FFAF0100000002600077010040
:100ED000000000200148018800887047000002607F
:100EE0004FF0C0421080014801807047000002604E
:100EF0002DE9FE430D46164604460021494B0122CA
:100F0000084600F0BBFCDFF820914846FFF769FD7A
:100F10004FF601080122CDE90082444B0293474677
:100F2000202350223C21642000F028FD0122CDE93D
:100F300000723F4B0293202350227821642000F05E
:100F40001DFD3D483B4B0068012281B28DE80E003B
:100F500020234FF48C720021642000F00FFD012E3D
:100F60000AD10122CDE90082344B02932023502282
:100F7000B421642000F002FD0A27B4FBF7F63046E6
:100F800000F086FE0122CDE9008202902023182283
:100F90003C21AA2000F0F2FC07FB164000F078FE8E
:100FA0000122CDE900820290202318223C21C22098
:100FB00000F0E4FCB5FBF7F4204600F069FE0122E6
:100FC000CDE900820290202318227821AA2000F087
:100FD000D5FC07FB145000F05BFE0122CDE9008236
:100FE0000290202318227821C22000F0C7FC0122A1
:100FF000CDE90082124B0293202328223C21DE20DF
:1010000000F0BCFC0122CDE900820E4B02932023AC
:1010100028227821DE2000F0B1FC4846BDE8FE43DE
:10102000FFF7DFBC782A0008FFFFAF007825000833
:10103000B82600081821000800000020F827000842
:1010400038290008D829000808B54FF4E06000F0FE
:101050003DF825208DF8000001208DF801000221C7
:101060008DF802108DF80300684600F001F808BD05
:10107000F0B50F23C47801784FF0E0220127E4B1E6
:10108000D2F80C4D867804F4E064C4F5E064240AD8
:10109000C4F10405E34044781E40AC4026433301CC
:1010A000114481F800340078410900F01F0002EB80
:1010B00081018740C1F80071F0BD01F01F00874039
:1010C000480902EB8000C0F88071F0BD0249084376
:1010D00002490860704700000000FA050CED00E0CE
:1010E000034A516821F440410143516070470000B8
:1010F00000100240044A0029516901D0014300E078
:10110000814351617047000000100240044A0029E9
:10111000916901D0014300E0814391617047000073
:101120000010024010B500F0A9F84FF40040FFF79E
:10113000D7FF01210846FFF7E9FF01210846FFF725
:10114000D9FF01214802FFF7E1FF0121BDE810406E
:101150007C20FFF7DBBF000010B5204A5168204B10
:1011600011F00C0103D0042901D0082901D003603B
:1011700011E051685368022401F4701104EB9141AD
:1011800013F4803F02D053689B0301D5154B00E058
:10119000134B594301605168134B01F0F0010909E9
:1011A0005C5C0168E1404160546804F4E064240A36
:1011B0001C5D21FA04F48460546804F46054E40A69
:1011C0001B5DD940C1605268074B02F44042920B4C
:1011D0001B1F9A5CB1FBF2F1016110BD00100240CF
:1011E00000127A0000093D00200000202149002063
:1011F0000A6842F480320A604FF4A0630A68401C17
:1012000012F4003F01D19842F8D10868800330D52C
:101210001948026842F010020260026822F00302DC
:101220000260026842F00202026048684860486852
:101230004860486840F480604860486820F47C104A
:101240004860486840F4E8104860086840F08070E2
:10125000086008688001FCD5486820F003004860F9
:10126000486840F0020048604868C0F381000228E6
:10127000FAD1704700100240002002400C4801687B
:1012800041F00101016041680A4A11404160016872
:10129000094A11400160016821F480210160416820
:1012A00021F4FE0141604FF41F018160FFF79EBFF2
:1012B000001002400000FFF8FFFFF6FE10B50C4CD6
:1012C00040F22551204600F02AF801280FD120468F
:1012D00000F00DF9074908700C3908700649012023
:1012E00048602046BDE81040082100F004B910BD58
:1012F000003801403C0000200400002000298189C2
:1013000002D041F4005101E021F400518181704785
:101310000246128800200A4200D00120704770B5B2
:1013200001F01F0601250024C1F3421305FA06F25D
:10133000012B01D1838904E0022B01D1038A00E053
:10134000838A4FEA11210088134205FA01F500EA69
:10135000050001D000B10124204670BD10B5C1F3D5
:10136000421301F01F040121A140012B01D10C30D7
:1013700004E0022B01D1103000E01430002A026892
:1013800001D00A4300E08A43026010BD30B5044634
:10139000008A85B00D464CF6FF710840E98801438C
:1013A0002182A0894EF6F3110840A9882A891143A9
:1013B0006A8902431143A181A08A4FF6FF41084088
:1013C000A9890143A1826846FFF7C6FE1B488442F3
:1013D00001D1039800E00298A1890904002900EBDB
:1013E000C00101EB0010296802DA4FEA410101E077
:1013F0004FEA8101B0FBF1F06422B0FBF2F14FEA59
:1014000001114FEA11136FF018056B43A58900EB2A
:10141000830032232D0406D503EBC000B0FBF2F0AD
:1014200000F0070005E003EB0010B0FBF2F000F065
:101430000F000843208105B030BD00000038014096
:101440000FB47FB506460AAD4AE05C290DD1401CB9
:10145000099001786E2903D0722920D10D2100E076
:101460000A21304600F047F818E000F10100252974
:1014700009902CD10178642914D073290FD110CD93
:1014800009E0304600F037F840213046FFF740FFD2
:101490000028F9D0641C21780029F2D10998401C59
:1014A000099017E001CD0A22694600F0B9F96C46AF
:1014B00009E0304600F01FF840213046FFF728FFD2
:1014C0000028F9D0641C21780029F2D1E6E73046E3
:1014D00000F011F840213046FFF71AFF0028F9D03C
:1014E000099801780029B0D17FBC5DF814FB808891
:1014F000C0F308007047C1F3080181807047000005
:1015000010B5012186B08803FFF700FE4FF400708C
:10151000ADF8140003208DF816001820184C8DF833
:10152000170005A92046FFF76BFB2015ADF8140046
:1015300004208DF8170005A92046FFF761FB4FF442
:10154000E13001900020ADF80800ADF80A00ADF8D8
:101550000C00ADF810000C200A4CADF80E0001A9EB
:101560002046FFF713FF012240F225512046FFF7E6
:10157000F5FE01212046FFF7C1FE06B010BD0000B8
:10158000000801400038014002E008C8121F08C1ED
:10159000002AFAD170477047002001E001C1121FF4
:1015A000002AFBD1704700004FF47A71B0FBF1F1D3
:1015B00030B5934A494201EB8101904208D39148EA
:1015C00000EB410000EB800040004FF4965110E02A
:1015D0008D4B984201D3012200E0002212F0010F4E
:1015E0000AD08A4800EB410000EB8000400046F240
:1015F000905190FBF1F0FEE0854CA04201D3012216
:1016000000E00022984201D2012300E000231A42A8
:1016100009D04CF6D07000EB410000EB8000400098
:1016200043F25841E5E77B4DA84201D3012200E097
:101630000022A04201D2012300E000231A4209D077
:1016400047F21C0000EB410000EB800040004FF42B
:10165000C851CEE7704CA04201D3012200E0002225
:10166000A84201D2012300E000231A4209D043F628
:10167000FC2000EB410000EB8000400040F6B83158
:10168000B7E7664DA84201D3012200E00022A04244
:1016900001D2012300E000231A4209D041F6EA708A
:1016A00000EB410000EB8000400040F2B451A0E7A5
:1016B0004BF66874A04201D3012200E00022A84248
:1016C00001D2012300E000231A4209D041F23E205A
:1016D00000EB410000EB800040004FF43E7188E7D2
:1016E00047F61815A84201D3012200E00022A042CB
:1016F00001D2012300E000231A4209D040F6A610CF
:1017000000EB410000EB800040004FF4B47170E743
:1017100044F62064A04201D3012200E00022A84246
:1017200001D2012300E000231A4208D040F25E609B
:1017300000EB410000EB80004000DC2159E743F260
:10174000C825A84201D3012200E00022A04201D214
:10175000012300E000231A4208D040F2564000EB7B
:10176000410000EB800040008C2142E74FF4FA5426
:10177000A04203D30123A84203D200E000230122A8
:1017800000E0002213424FF47A75B0FBF5F26FF0DF
:10179000180502FB05F209D041F63C6000EB82001F
:1017A00000EB800040004FF4667122E741F2707553
:1017B000A84201D3012300E00023A04201D201246A
:1017C00000E00024234209D041F21A3000EB8200ED
:1017D00000EB800040004FF407710AE7A8420BD2EB
:1017E0004FF4C27000EB410000EB80004000C117D5
:1017F00000EB9170801080B21E3880B230BD0000C6
:1018000040AC2700503A020020D613007863010054
:10181000F09C0900F0BA040000710200D8530100E6
:10182000F0B500250B462E460A2A01D01E7005E0B1
:10183000002805D14FF0300018705E700846F0BDEA
:1018400005DA4FF02D0203F8012BC0F1000042F23F
:1018500010724FF00A0C00BF90FBF2F454EA050737
:1018600006D004F1300503F8015B04FB12000125EA
:1018700092FBFCF2002AEFDCD8E700002DE9F04FE4
:10188000884605469978D8784FF0FF3707EB012155
:10189000084486B21979587907EB012108440824D5
:1018A00087B24FF4047940F2112A40F2122BE2B9C8
:1018B00041F230010320FFF713FB29464846FFF7AA
:1018C0000FFBA9195046FFF70BFB41465846FFF79F
:1018D00007FB08EB070140F21320FFF701FB294645
:1018E000A001FFF7FDFA414624E0012A26D141F28A
:1018F00018010320FFF7F4FA41464846FFF7F0FAD3
:1019000008EB07015046FFF7EBFA7019A0F28F10B1
:1019100041425846FFF7E4FAA5F28F1569420D4699
:1019200040F21320FFF7DCFA41464FF40070FFF756
:10193000D7FA294640F20120FFF7D2FA40F20220FE
:101940004FF0C0410880D87899785A791D7900EB1A
:101950000120410002EB05204143074A083106E01F
:10196000181940781D5D00EB05201080A41C8C42E6
:10197000F6D3BDE8F08F0000000002602DE9FF4FB4
:1019800083B082460024DDE910B0129F91462546BF
:101990002646022802D141F2100103E0032807D1B4
:1019A00041F2280107B0BDE8F04F0320FFF798BAD5
:1019B0000AEB09010291049909FB03F8194401910A
:1019C00000285CD141F230010320FFF789FA51462B
:1019D0004FF40470FFF784FA029940F21120491E77
:1019E000FFF77EFA40F212200499FFF779FA019985
:1019F00040F21320491EFFF773FA51464FF400706E
:101A0000FFF76EFA40F201200499FFF769FA40F2FD
:101A100002204FF0C0410880CDF8008029E000BFCF
:101A200017F8013B4FF00008180601D5584612E0A0
:101A30000AEB04014FF40070FFF752FA04984119C1
:101A400040F20120FFF74CFA40F202204FF0C04173
:101A50000880FFF73FFA3B4908805B00641C4C4557
:101A600001D300246D1C761C08F10108B8F1080FA1
:101A7000DAD300988642D3D307B0BDE8F08F0128AF
:101A8000FAD141F218010320FFF72AFA4FF404704B
:101A90000499FFF725FA019940F21120491EFFF73A
:101AA0001FFA0298C0F5C87140F21220FFF718FA29
:101AB000AAF28F1041420B4640F21320FFF710FAB2
:101AC0004FF400700499FFF70BFA194640F2012019
:101AD000FFF706FA40F202204FF0C0410880CDF82F
:101AE00000802BE017F8013B4FF00008180601D5E5
:101AF000584615E0049841194FF40070FFF7F0F9CB
:101B00000AEB0400A0F28F10414240F20120FFF7DF
:101B1000E7F940F202204FF0C0410880FFF7DAF900
:101B2000084908805B00641C4C4501D300246D1CEF
:101B3000761C08F10108B8F1080FD7D30098864247
:101B4000D0D399E7000002602DE9FE4FFFF7EAFAD3
:101B5000FEF74CFFFFF7D4FCFFF776FAFFF728F803
:101B6000FFF7A8F8FEF78AFDDFF8E48039A50FF249
:101B7000EC093CA70FF2F40A0FF2F80BA8F10804E5
:101B8000B8F8000020802088FEF7B3FCD5E90023D8
:101B9000FEF7BFFBD9E900234E46FEF72EFCD7E93E
:101BA0000023FEF79EFBDAE90023FEF726FCDBE9C3
:101BB0000023FEF766FBFEF7A9FCE060B8F8020020
:101BC00060806088FEF795FCD5E90023FEF7A1FB55
:101BD0000CCEFEF712FCFEF799FC284980B2B1FB4F
:101BE000F0F0A0F54740383880B2FFF7DDFC244E16
:101BF000206104213046FFF752F800B101206061F6
:101C000020694FF040012828304602D3FFF750F8F2
:101C100001E0FFF74BF860694FF0200101281948F7
:101C200002D1FFF745F801E0FFF740F86188D4E9F9
:101C300004238DE80E002288E36813491348FFF758
:101C4000FFFBD4E90412E068FFF752F998E70000BF
:101C50000C0000206666666666660A4000000000AA
:101C600000FEAF40E17A14AE47E1F63F22FDF67583
:101C7000E09C713F000000000000394018E40300C0
:101C800000140140000C0140F41C00080038014021
:101C90000A2818D2DFE800F0170507090B0D0F110D
:101CA00013150A4870470A4870470A4870470A489F
:101CB00070470A4870470A4870470A4870470A4800
:101CC00070470A4870470A4870470000B81D00086E
:101CD000181E0008781E0008D81E0008381F0008CB
:101CE000981F0008F81F000858200008B8200008B6
:101CF000581D00080D0A5468652063757272656E80
:101D0000742054656D70416E616C6F67203D2025B5
:101D100064202C2074656D70657261747572652025
:101D20003D202564202C2048756D69416E616C6FE3
:101D300067203D202564202C2068756D69646974D6
:101D400079203D202564A3AC70656F706C65203DE3
:101D500020256420200D0A0000FF0003FFC007FFBC
:101D6000E00FC3F00F81F01F00F81F00F83E007C69
:101D70003E007C3E007C7C003E7C003E7C003E7C45
:101D8000003E7C003E7C003E7C003E7C003E7C00B1
:101D90003E7C003E7C003E3C003C3E007C3E007CA5
:101DA0003E007C1F00F81F00F80F81F00FC3F00702
:101DB000FFE003FFC000FF00000E00001E00001E39
:101DC00000003E0000FE000FFE000FFE00003E007F
:101DD000003E00003E00003E00003E00003E0000CD
:101DE0003E00003E00003E00003E00003E00003E7F
:101DF00000003E00003E00003E00003E00003E00AD
:101E0000003E00003E00003E00003E00003E00009C
:101E10003E00003E00003E0000FF0003FFC007FF41
:101E2000E00FC3F01F81F01F01F01F00F83E00F823
:101E30003E00F83E00F83E00F80000F80001F00017
:101E400001F00003F00007E0000FC0001F80007FDA
:101E50000000FE0001FC0003F80007E0000FC000D6
:101E60000F80001F00003F00003E00007C00007F4C
:101E7000FFFC7FFFFC7FFFFC007F0001FFC003FF32
:101E8000E007E3F00FC1F00F80F80F80F81F00F8B3
:101E90001F00F81F00F80000F80001F00001F0003A
:101EA00007E0003FC0003F80003FE00003F000017A
:101EB000F80000F800007C00007C3E007C3E007CC6
:101EC0003E007C3E007C1F00F81F80F80FC3F00727
:101ED000FFE003FFC000FF000007E00007E0000F85
:101EE000E0001FE0001FE0003FE0003FE0007BE07B
:101EF00000FBE000F3E001F3E003E3E003C3E007ED
:101F0000C3E00F83E00F03E01F03E01E03E03C0388
:101F1000E07C03E07FFFFE7FFFFE7FFFFE0003E02B
:101F20000003E00003E00003E00003E00003E00042
:101F300003E00003E00003E00FFFF80FFFF80FFFDE
:101F4000F80F00000F00000F00000F00000F00004E
:101F50001E00001E00001E7F001FFFC01FFFE01FAD
:101F6000C3F01F81F81F00F81E00FC00007C000079
:101F70007C00007C00007C00007C00007C3E007C3B
:101F80003E007C3E00F81F00F81F00F81F81F00F94
:101F9000C3E007FFE003FF80003F8000FFE003FF96
:101FA000F007E1F807C0F80F80FC0F807C1F007C71
:101FB0001F00001F00001E00003E3F803EFFC03F8C
:101FC000FFE03FC3F03F81F83F00F83F00FC3E00D8
:101FD0007C3E007C3E007C3E007C3E007C1E007C03
:101FE0001F007C1F00F80F00F80F81F807E3F003D3
:101FF000FFE001FFC0007F001FFFFC1FFFFC1FFF71
:10200000FC00007C00007C0000F80000F80000F8F4
:102010000001F00001F00001F00003E00003E00027
:1020200003E00007C00007C00007C0000FC0000F9A
:1020300080000F80001F80001F00001F00001F0095
:10204000003E00003E00003E00007C00007C0000DE
:102050007C0000F80000F800007F0001FFC003FFD3
:10206000E007E3F00F80F80F80F81F007C1F007C72
:102070001F007C1F007C1F007C1F80FC0F80F80766
:10208000E3F003FFE000FF8007FFF00FC1F81F80BF
:10209000FC1F007C3E003E3E003E3E003E3E003EB9
:1020A0003E003E3E003E1F007C1F80FC0FC1F80733
:1020B000FFF003FFE000FF8000FE0003FF8007FF4A
:1020C000C00FC7E01F81F01F00F03E00F83E00780F
:1020D0003E00783E007C3E007C3E007C3E007C3E24
:1020E000007C1F00FC1F01FC0FC3FC0FFFFC03FF63
:1020F0007C01FC7C00007C0000780000F80000F807
:102100003E00F83E01F03F01F01F03E01F87C00FC3
:10211000FFC007FF0001FC000000000000000000FD
:1021200000000000000000000000000000000000AF
:10213000000000000000000000000000020000207D
:10214000002001000000000000000000000000006E
:1021500000000000000000000000000000000082FD
:1021600004001000203F800000000000000000007C
:10217000000000000000000000000000000000005F
:102180000000820400100021C08000000000000058
:10219000000000000000000000000000000000003F
:1021A0000000000000FFFC001001FE008000780F1E
:1021B00000407F8100200403C0100F01E0080000F0
:1021C0000000000000000000A2043FFFF021110009
:1021D00000841081C0400700E01C042070108210B1
:1021E0003800000000000000000000310001030082
:1021F00020990001021080404001002004042010BA
:1022000010840808000000000000000000006104C5
:10221000010200FC82000102204040400100200435
:102220000810102044080800000000000000000012
:10223000007FFE008200200000010220404040019B
:1022400000200408101020440808000000000000CE
:1022500000000000C10000820020738000022040C6
:10226000405E010020040810102040080800000013
:1022700000000000000000C10000840020808000F9
:102280000420404061010020040810102040100884
:10229000000000000000000000017FF8004401FE83
:1022A0008080000820404000810020040810102099
:1022B0004020080000000000000000000241000073
:1022C0004C00248080001020404000810020040841
:1022D0001010204040080000000000000000000432
:1022E000410000280024F3800020204040008100AD
:1022F00020040810102040800800000000000000AA
:102300000000007FFC00100024808000402040403E
:102310008081002004081010204100080000000007
:10232000000000000000410000280034808000828E
:1023300010804080810020040420101082080800D2
:1023400000000000000000000041000046002C805A
:1023500080010210804081010020040420101084BC
:102360000808000000000000000000007FFE01835C
:102370008020FF8001FE0F01F07E07C0F81F03C020
:102380007C0F07F83C000000000000000000004047
:10239000000600F82080800000000000000000001F
:1023A000000000000000000000000000000000002D
:1023B0000000400018002020000000000000000085
:1023C000000000000000000000000000000000000D
:1023D00000000000000000000000000000000000FD
:1023E00000000000000000000000000000000000ED
:1023F00000000000000000000000000000000000DD
:1024000000000000000000000000000000000000CC
:1024100000000000000000000000000000000000BC
:1024200000000000000000000000000000000000AC
:10243000000000000000000000000000000000009C
:10244000000000000000000000000000000000008C
:10245000000000000000000000000000000000007C
:10246000000000000000000000000000000000006C
:10247000000000000000000000000000000000005C
:10248000000000000000000000000000000000004C
:10249000000000000000000000000000000000003C
:1024A000000000000000000000000000000000002C
:1024B000000000000000000000000000000000001C
:1024C000000000000000000000000000000000000C
:1024D00000000000000000000000000000000000FC
:1024E00000000000000000000000000000000000EC
:1024F00000000000000000000000000000000000DC
:1025000000000000000000000000000000000000CB
:1025100000000000000000000000000000000000BB
:1025200000000000000000000000000000000000AB
:10253000000000000000000000000000000000009B
:10254000000000000000000000000000000000008B
:10255000000000000000000000000000000000007B
:10256000000000000000000000000000000000006B
:10257000000000000000000000000000000000005B
:1025800000000000000100000C00000018FF8000A7
:10259000800208000000088080808301080000009D
:1025A000008080FF7C0088000000028080C6180048
:1025B0008800000044FF80C6120008080000248044
:1025C00080FFFF0FFFFC0000348080861000180899
:1025D000000004FF8086100010080000080000873B
:1025E000F0001408000008004080000033080000DC
:1025F00009FFC08FFC0021880000192440841800C6
:1026000060D80000312440823000401800001124BE
:10261000410160008018000011244100C001001039
:10262000000011244101F002001000001FFFF2061B
:102630001F8401F000000000007802180040000034
:10264000000000000000000000000000000000008A
:10265000000000000000000000000000000000007A
:10266000000000000000000000000000000000006A
:10267000000000000000000000000000000000005A
:10268000000000000000000000000000000000004A
:10269000000000000000000000000000000000003A
:1026A000000000000000000000000000000000002A
:1026B000000000000000000000000000000000001A
:1026C00000000000000100000C00000010FFC0002E
:1026D000800208000000088040808301080000009C
:1026E000088040FF7C008800000002FFC0C6180080
:1026F00088000000448040C61200080800003480B2
:1027000040FFFF0FFFFC000014FFC08610001808F8
:10271000000008A40086100010080000083200879E
:10272000F000140800000A22208000003308000096
:102730001922608FFC002188000071A240841800DB
:1027400060D8000010A2808230004018000010A362
:10275000010160008018000030220100C00100105B
:10276000000030220101F0020010000033FFF206E9
:102770001F8401F0000000000078021800400000F3
:102780000000000000000000000000000000000049
:102790000000000000000000000000000000000039
:1027A0000000000000000000000000000000000029
:1027B0000000000000000000000000000000000019
:1027C0000000000000000000000000000000000009
:1027D00000000000000000000000000000000000F9
:1027E00000000000000000000000000000000000E9
:1027F00000000000000000000000000000000000D9
:102800000000004000020000000000000060000323
:102810000000000000000040000300000000000075
:102820003FFFE00300000000000000800003000004
:10283000000000000100000300000000000001FF94
:102840000002800000000000020100028000000081
:102850000000060100068000000000000A010006DA
:10286000C0000000000013FF000440000000000052
:10287000220100044000000000004201000C200082
:102880000000000003FF000830000000000002010B
:102890000010180000000000020100200C000000E1
:1028A0000000020100400E0000000000020F008046
:1028B000078000000000020203000000000000008A
:1028C0000000000000000000000000000000000008
:1028D00000000000000000000000000000000000F8
:1028E00000000000000000000000000000000000E8
:1028F00000000000000000000000000000000000D8
:1029000000000000000000000000000000000000C7
:1029100000000000000000000000000000000000B7
:1029200000000000000000000000000000000000A7
:102930000000000000000000000000000000000097
:10294000000000000000001E000000001200007ADD
:1029500000120000860012000102000C00010200BB
:102960000000020000000002000000000200000061
:102970000002000000000200000000020000000051
:1029800002020000000102000000018400000000BB
:1029900078000000000000000000000000000000BF
:1029A0000000000000000000000000000000000027
:1029B0000000000000000000000000000000000017
:1029C0000000000000000000000000000000000007
:1029D00000000000000000000000000000000000F7
:1029E000000000000000000000000000308FC1C7A0
:1029F00000490420820049041082004A0410820029
:102A00004A041082004A042082003407C0FE0005F8
:102A1000848082000A444082000A444082001244BA
:102A200020820012442082001244108200218E195C
:102A3000C7000000000000000000000000000000CF
:102A40000000000000000000000000000000000086
:102A50000000000000000000000000000000000076
:102A60000000000000000000000000000000000066
:102A700000000000000000001010016900F0011BC0
:102A8000BE5ABE5AC65AC65ABE7ABE7BBE7BC67BEB
:102A9000C67BC65BC65BCE7BCE7BCE7BC67BCE7B4E
:102AA000CE9CCE9CCEBCCE9CCEBCCEBCCEBCCE7C76
:102AB000CE7CD6BDD6BDDF1DDF1DDF1DDF3DDF3D7A
:102AC000DF3DE73EE75EE75EE75EE75EE75EE75E27
:102AD000E75EE75EE77EEF9EE77DE77FE79FEF9E9D
:102AE000E79EEFBEEF9EEFBEF7BEF7BEEFBEEFBFB5
:102AF000EFBFEFBFF7BFF7BFF7BFF7BFF7BFF7BF36
:102B0000F7BFF7BFF7BFF7BFF7BFF7BFF7BFF79E36
:102B1000EFBFEF9FEFBFF7BFF7BFEF9FEFBFEFBE76
:102B2000EFBFF7BEF7BEF7BEF7BEF7BEF7DFF7DFC2
:102B3000F7BFF7BFF7DFF7DFF7DFF7BFF7BFF7BF85
:102B4000F7BFF7BFFFBFF79EF79EF79EFFBEFFBF21
:102B5000FFBFFFBFFFDFFFDFFFBFFFDFFFDFFFBE06
:102B6000FFBFFFDFFFBFFFBFFFBFFFBFFFBEFFBE57
:102B7000FFBEFFBEFFBFFFBFFFBEFFBEF79FF7BF99
:102B8000F79FFFBFFFDFFFBFFFBFFFBFFFBFFFDF3D
:102B9000FFBFFF9FFFBFFF9FF7BFF7BFF7DFF7BF85
:102BA000F7DFF7BFF7BFF7BFF7BFF7BFF7BFF7BE56
:102BB000F7BEF7BDF7DDF7BDF7BEF79FF7BEFFBE67
:102BC000FFDFFFDEFFDFFFBFFFBEFFBEFFBEF7DEA2
:102BD000F7DEF7DEF7BEF7BEFFBEFFDEFFBEFFBECD
:102BE000EFBEEF9EE75DE75DE71CDEDBF79EEF9E45
:102BF000EF9EE77EEF7EF79EF79EEF9EE77EEF9ECD
:102C0000EF9EEF9EE79FDF9FE7BFEF9EEF9EE79E61
:102C1000EFBEF7BFF7BFEFDFEFBEF79EFFBFFFBF0F
:102C2000F7BEEF9EF7BFF7BFF79FF79EF79FEF7FC7
:102C3000EF9FEF7EEF7EEF7EE77EE77DE77DE77E2D
:102C4000E75EE75EE77EE77EE77EE75EE75DDF5D06
:102C5000DF3DD75DD75ED73ED73ED73DD73DD73E88
:102C6000D73ED73ED73ED71ED71DD73DD73DD75EDF
:102C7000DF5EDF5ED75ED75EDF3EDF3DDF3DDF3DFF
:102C8000DF3DDF3DE75EDF3DDF3DDF1DD71DD6FDCC
:102C9000D71DD71DD6DDD6DDCEDDCEBDCEBCC6BCA4
:102CA000C6DCC6DCC6DCC6BDC6BDC6BDC6BDC6BDAF
:102CB000CEBDC6BDC6BCC6BCC6DCC6DCC6DCC6DD79
:102CC000C6BDC6BCC69CC69CBE7BBE5BC67CBE5B8E
:102CD000BE5BB63BB63BBE3BBE3CB61CB61BBE5C49
:102CE000B63CB5FCB5FBB61BB61BADFAADFAADDB19
:102CF000ADFBB5FBADFBADFBB61AB61BB61BB5FB0A
:102D0000ADFBADFBB5FBADFAADFAB61BADFAADFA56
:102D1000B61BB5FAADFAADDAADDAADDAADDAADDAE9
:102D2000ADDAADDAADDAADBAA5BAA5BAA59AA5996C
:102D3000A599A59AA59AA5799D799D799579959A50
:102D40009D799D799D799D799D799D7995599D79FB
:102D50009578C65AC67BC67BC67BBE7BBE7BC67BD0
:102D6000C67BC67BC67BCE7BCE9CCE9CCE9CCE7BD0
:102D7000CE9CCE9CCEBCD6DCD6BCD6BCD6BCD6DDDA
:102D8000D6DDD6DDD6DDD6DDDF1DDF1DD6FDDEFDD1
:102D9000DF1DDF1DDF1DDEFDDF1DDF3DE75EE75EC2
:102DA000E75EE75EE77EE77EE77DE79DEF9EEF9ECD
:102DB000EF9FEF9FEFBFE79FEFBFEFBFEFBEF7BE05
:102DC000F7BFF7BFF7BFF7BFF7BFF7BFF7BFF7BF53
:102DD000F7BFF7BFF7BFF7BFF7BFF7BFF7BFF7BF43
:102DE000F7BFEFBFEFBFF7BFF7BFF7BFF7BFF7BF43
:102DF000F7BFF7DFF7BEF7BEF7BEF7BEF7BEFFBF00
:102E0000FFBFF7BFF7BFF7BFF7BFF7BFF7BFF7BF0A
:102E1000F7BEF7BFF7BFFFBFFFDFFFDFFFDFFFDF5B
:102E2000FFDFFFBFFFBFFFBEFFBEFFBEFFBEFFDF76
:102E3000FFBEFFBEFFDFFFBFFFBFFFBFFFBFFFBF84
:102E4000FFBFFFBFFFBFFFBEFFDFFFBEFFBEF7BF7D
:102E5000F7BFF7BFF7BFF7DFF7BFF7BFF7DFF7BF82
:102E6000FFBFFF9FFF9FFFBFFF9FF7BFF7BFF7BFEA
:102E7000F7DFF7BFF7BFF7BFF7BFF7BFF7BFF7BF82
:102E8000F7BFF7BFEFBFEFBEEF9EEF9EEF9FF7BF1D
:102E9000F7BFF7BFF7BFF7BFF7BEF7BEF7BEF7BF85
:102EA000EFBEEFBFEFBFEF9EEF9FEFBFF7BFF7BFE4
:102EB000EFBFEFBEEF9EEF9EDEFC94B4B5D8EFBF40
:102EC000EF9FE79FDF7FDF5EE77FEF9FE77FE79F73
:102ED000E77EE77EE79EE79FE79FDF9FEF9FEF9EFE
:102EE000EFBFF7BFF7DFF7BFF7DEF7BEF7BEFFBEF6
:102EF000F7BEF7BEF7BEF7BEF7BFF7BEF79EEF9E71
:102F0000E77EE77EEF7EEF7EE77EE77EE77DE77E8A
:102F1000E77EE77EE75EE77EE77EE77EE75EE77EC9
:102F2000E75EDF5EDF5EDF5ED73ED73ED75ED75E11
:102F3000DF5ED73EDF5ED73ED73ED73EDF5ED73E71
:102F4000D75ED75ED75ED73ED73ED73EDF3DE75E42
:102F5000E75EE77EE75EE75EDF5EDF3EDF3DDF3EAA
:102F6000D71DD71DD6FDD6FDD6FDD6FDCEDDCEDDD7
:102F7000CEDDCEDDC6DDC6DDCEDCCEDCC6BCCEDC35
:102F8000CEDCC6BCCEDCCEDCCEDCCEFCCEDCCEBC19
:102F9000CEBDCEBDC6BCC69CC69CBE7BC67CBE7C20
:102FA000BE5BBE5BBE5BBE5BBE7CBE5CBE3CBE3C75
:102FB000BE3CB63CB5FBB61CB61BB61BB61BB61B5F
:102FC000B61BADFBADFAB5FBADFAB5FAADFAB5FB84
:102FD000B5FBADDAADFBB61BB5FAADFAB61BADFA73
:102FE000B61AB61AB5FBADFAADFAADDAADDAADDAAE
:102FF000ADDAADBAADBAA5BAA5BAA5BAA599A599E3
:10300000A599A599A599A5999D799D799D799D7970
:103010009D7A9D799D799D799D799D599D599D793F
:103020009D799D99C65BC67BC67BC67BC67BC67BEE
:10303000C67BCE7BCE7BCE9CCE9CCE7BCE9CCE9CCC
:10304000CE9CCEBCCE9CCEBCD6BCD6BCD6DCD6DC10
:10305000D6DCD6DCDEFDDEFDD6FDDF1DDF3DDF1D6F
:10306000DF1DDF1DDF3DE75EE75EE75EE75EE77ED3
:10307000E77EE75EE75EE75EE75EE75DE75DEF7DE3
:10308000EF7EEF9FE75EE77FE79FEF9FEFBFF7BF22
:10309000F7BEF7BEF7BFF7BFF7BFF7BFF7BFF7BF82
:1030A000F7BFF79FF7BFF7BFF7BFF7BFF7BFF7BF90
:1030B000F79FF7BFF7BFF7BFF7BFF7BEF7BEF7BF82
:1030C000F7BFF7DFF7DEFFDFFFDFF7BEF7BEFFBEBC
:1030D000FFBFFFBFFF9FFFBFF7BFF7BFF7BFF7BF40
:1030E000F7BFF7DFF7BFF7BFFFBFFF9EFFDFFFBEF2
:1030F000FFBFFFBFFFBEFFBEFFBEFFBEFFBEFFBEE6
:10310000FFBFFFBFFFBEFFBFFFBFFFBFFFBFFFBFD0
:10311000FF9FFFBFFFBFFFBFFFBEFFBEF79EF79E33
:10312000F7BFF7DFF7DFF7BFF7BFF7BFF7BFF7BFAF
:10313000F7BFF7BFFFBFF7BFFFBFF7BFFFBFF7BFC7
:10314000F7DFF7DFF7DFF7BFF7BFF79EF79EF7BFB1
:10315000F7BFF7BFF7BFEF9FEFBFEF9FEFBFEFBF27
:10316000EFBFEF9FEFBFEF9FEFBEEFDEF7DFF7DFC1
:10317000EFBFEFDFEFBFEF9FEF9FEF9FE79FE79F6F
:10318000EF9FEF9FEF9EE77ECE9BDF1DB5D8ADB8DA
:10319000E77FDF3DCEFCD75EDF5FDF7FE77FDF7F4E
:1031A000DF7EE79FE79FDF7EE77FE77FE79FEF7E9A
:1031B000F79FF7BFF7BFF79EF7BFF7BEF7BEF7BEA3
:1031C000F7BEF7BEF7BEF7BEF79EF79EF79EEF9EDF
:1031D000EFBEE79EEFBFEF7EEF7FE77FE77FE77E03
:1031E000E77EE77EE77FE77FDF5EDF5EDF5EDF5E55
:1031F000DF7EDF5EDF3EDF3EDF5EDF5EDF5ED73E2F
:10320000D73ED73ED73EDF5ED71ED73ED73ED73E0E
:10321000D73ED73EDF5ED73DD71DD73DD73DDF3EFA
:10322000DF3ED73ED73EDF3EDF3ED73DD73DD73DE1
:10323000DF3ED71DD71DD6FDD6FDCEDDCEDDCEBD02
:10324000CEBCCEDDCEDDC6DDC6BCCEDCCEDCCEDC7B
:10325000CEDCCEDCCEDCCF1DCF1CD71CD6FDCEDC29
:10326000CEDDCE9DCE9CC6BCC6BCC69CC69CC6BC94
:10327000C69CC69CC69CBE7CBE7BBE7CBE7CBE5C27
:10328000BE5BBE3BB63BB63CB61CB63BB63BB61BC4
:10329000B61BB61BB5FBB61BADFAADFAADFAADFA6F
:1032A000ADFAADFBB5FBB5FBB5FBB61BB5FAB61B6E
:1032B000B61AADFAADFAADFAADFAADFAADFAADDACD
:1032C000ADDAADDAADDAADBAA5BAA5BAA59AA59AC6
:1032D000A599A5B9A599A599A599A599A599A599DE
:1032E000A59AA579A599A599A599A599A599A5792D
:1032F000A599A599A599C65BFF3CFF3CC65BBE3A64
:10330000BE5AC67BCE9CCE9CD6DDCEBCCE9CCE9C7F
:10331000CEBCCEBCCE9CCEBCD6BCCEBCD6DCD6DD24
:10332000D6FDD6FDD6FDD6FCDF1DDF1DDF3DDF1D42
:10333000DF3DDF3DDF3DDF1DDF1DDF3DDF3EE75EC3
:10334000E75EE75EE77EE77EEF7FFF3CFF3CFF3C0A
:10335000FF3CF79FF79FF79FFF3CFF3CF79FF7BFAE
:10336000FFBFF79DF7BDF7BEF79EF79FF79EF79E4D
:10337000F79EF79EF7BFF79EF79EF79EF79EFF3CDE
:10338000FF3CF7BFFFDFF7DFF7DFF7BFF79EFFBEBA
:10339000FFBFF7BEF7BEF7BEF7BEF7BEF7BEF7BE7C
:1033A000F7BEF7BFF7BFFFDFFFDFF7BFF7BFF7BF1E
:1033B000F7BFF7BFF7DFF7BFF7BFFFBFFFBFFFBE26
:1033C000FFBEFFBFFFBFFFBEFFBEFFBFFFBFFFBE11
:1033D000FFDFFFDFFFBFFFBEFFBFFFBFFFBFFFBFBE
:1033E000FFDFFFBFFFDFFFBFFFBFFFDFFFDFFFBF6D
:1033F000FFBFFFBFFFBFFFBFFFBFFFBFFFBFF7BFE5
:10340000F7BFF7BFF79FF7BFF79FFFBFF7BFF7BF44
:10341000FFBFF7DFF7DFF7DFF7BFF7BFF7BFF7BF94
:10342000F7DFEFBFEFBFEFBFEF9FEF9FEF9FEF9E85
:10343000EF9EF79EF79EF79EF79EF7DEF7DEEFBE54
:10344000F7BFF79FF7BFEFBFEF7EEF9FEFBFEFBF75
:10345000EFBFEF9FEF9FCEDBF7FFDF3EBE3A73D1AA
:103460009D15B5F9C67A8CD4DF7FDF7EE77FE75FF5
:10347000E75EDF5EDF5EE77FEF9FE77EEFBFEFBED9
:10348000EF9EF7BEFF9FF79EF7BFF7BEF79FF7BF10
:10349000EFBFEFBFEFBEEF9EEF9EEF9FEF9FEF9F5F
:1034A000EF9FEF9FE79FE77FE77EE77FDF5FE77FA5
:1034B000DF7EDF7EDF5EDF5EDF5FDF5EDF5EDF5EE3
:1034C000DF5EDF7EDF5EDF3EDF3FDF3FDF5EDF5E52
:1034D000D73ED73ED73ED73ED71DDF5ED71ED73E5D
:1034E000D73ED75ED71DD71DD71DD71DD73DD73D9A
:1034F000D73ED73ED73ED73ED73ED73ED73ED71D45
:10350000D71DD71DD71DD71DD6FDD6FDD6DDCEDDE7
:10351000CEDDCEBDD6BDCEDDCEBDC6BCC6BCC6BC26
:10352000C6BCC6BCC6BCC6BDC6BCCEDCCEFCCF1DB0
:10353000CEDCCEDDC6BDC6BDC6BCC69CC69CC6BC68
:10354000C69CC69CC69CC69CC6BCC69CC69CC69C4B
:10355000BE7CBE7CBE5BBE3BBE5BB63BB61BB61B39
:10356000B61BB61BB61BB61AB61BB61BB61BB61BD4
:10357000B61BB61BB61BB61BB61BB61BB5FAADFA0F
:10358000B61AADFAADFAADFAADFAADDAADDAADDA3A
:10359000ADDAADDAADDAADDAADDAADDAA5BAADFBFA
:1035A000ADDAA5BAA5B9ADDAADFAADD9A5D9A5D927
:1035B000ADB9ADBAAD9AA599A599A599A599A599C1
:1035C000A599A599A599A598CE9CFF3C7BCF7BCFCB
:1035D000C67BCE9CC65BCE9CC65ACEBCCE9BCE9B39
:1035E000C69BC67BCE7CCEBCCEBCCEDDCEDCCEDCDC
:1035F000CEBCD6DCD6DCD6DCD6FCDEFDD6FDDF1DAF
:10360000DF1DDF1DDF1DDF1DDF3DE73EE73EE75E1F
:10361000DF3DE75EE75EE77EE77EFF3CFF3C7BCF7A
:103620007BCF7BCF7BCFEF7EF79EFF3C7BCF7BCFEB
:10363000F79EFFBEF7BEF7BEF7BEF7BFF7BFF7BFF7
:10364000F7BFF79EF79EF79FF7BFF7BFF79FF79F6C
:10365000FF3C7BCF7BCFF7BFF7BFF7BFF79EF77E6F
:10366000F79EF79EF7BEF7BEF7BDF79EF79EF7BE33
:10367000F7BEF7BEF7BEF7BEF7BEF7BEF7BEF7BEA2
:10368000F7BFF7DFF7BFF7DFF7BFF7BFFFBFFFDF1A
:10369000F7BEF7DFF7BFF7BFFFBEFFBEFFDFFFDFFD
:1036A000FFBFFFDFFFDFFFDFFFBFFFBFFFBFFFBFCA
:1036B000FFBFFFBFFF9FFFBFFFBFFFBFFFBFFFBF3A
:1036C000FFBEFFBEFF9EFF9FFF9EFF9FFF9FFFBFAE
:1036D000FFBFFFBFFFBFFFBFFFBFFFBEFFBFFFBFFB
:1036E000FFBFF7BEF7BFF7BFF7BFF7BFF7BFF79F43
:1036F000F79FF7BFF7BFF7BFF7BFF7BFFFBFFFBF2A
:10370000F7BEF7BEFFDEFFDEF7BEF7BEFFDFFFDF6F
:10371000FFBFF79FF79FF7BEF7BEF79FF79FF79F93
:10372000F79EEF9EF7BFF79EB5D7F7DFEFBFD6FC4A
:103730008CB4BE19E75DE77E6BAEE77EE79FEF7F57
:10374000E77FEF7EEF7FEF7FEF7EE75EE77EEF9E26
:10375000EFBEEFBEF7BEF79FF7BFF7BFF79EF79F2D
:10376000EF9FEFBFE7BFE7BFE79FE79FE79FE79FB9
:10377000EF9FEF9FE75FE77FE77FE77EE77EDF7EF4
:10378000DF7FDF5EDF7FDF5FDF5FDF5FD75ED75E1C
:10379000D75ED75ED75ED75EDF3EDF3FDF3FD75EC7
:1037A000D75ED75ED73ED71ED71EDF3ED6FED73EAA
:1037B000D75DD73DD73DD73ED73ED71DD71DD73D87
:1037C000D73DD73ED73ED73ED73ED71ED71ED73E92
:1037D000CF1DD73ED71ED73ED71DD6FDD6FDD6FD71
:1037E000D6DDCEDDCEDDCEDCCEDDCEBCC6BCCEBDE4
:1037F000C6BDC6BDC6BDC6BDCEBDCEBDCEBDCEBD91
:10380000C6BCC6BCC6BCC6BDC69CC69CC69CC69C27
:10381000BE7CC69CC69CC69CC69CC69CC69CC69CC0
:10382000C69CC67CC67CBE7CBE5CBE5CBE3CBE5C30
:10383000BE3CBE3BBE3BBE3BB63BBE3BB61BB61B17
:10384000B61BB5FBB5FBADFAB5FBB5FBADFAB5FAEA
:10385000B61BB5FBB5FAADFAB5FAADFAADDAADDA2D
:10386000ADDAADDAADDAADDAADDAADD9A5BAADDA49
:10387000A59AA5BAA5BAA5BAA5B9A5D9A5D9A5D914
:10388000A5B9A5BAAD9AADBAADBAADBAA599A59983
:10389000A599A599A579A578A5782186FF3C7BCF28
:1038A00000000000D6BCCE7CCE7CCEBCD6FCD6DCE4
:1038B000D6DCCEBCCE9BCE9CC67BCEBCCEBCD73E8F
:1038C000D73ECEDCD6DDD6DCD6BCD6DCDF1EE73E6E
:1038D000E75FDF1DD6FDDEFDDF1DE73EDF1DDF3EBE
:1038E000E75EE75EE77FE75EE75EE75EFF3C7BCF94
:1038F0007BCF0000000000000000EF7EFF3C7BCF8C
:1039000000000000F7BEFF9EFFBEF7BEF7BFF7BF87
:10391000F7BEF7BEEF9EEF9EF7BFF7BFF7BFF7BF4B
:10392000F7BFFF3C7BCF00000000F79FF79FF7BF7A
:10393000F7BFF7BFF7BEF7BEF79EF7BFF7BFF7BFFA
:10394000F7BFFFDFFFDFFFDFFFDFFFDFFFDFFFDFAF
:10395000FFDFFFDFFFDFFFDFF7DFFFDFF7BEFFBEC9
:10396000FFDFF7BEF7BEF7DEF7BEF7BEFFBEFFBF55
:10397000FFBFFFBEFFBEFFBEFFBEFFBEFFBFFFBE5D
:10398000FFBFFFBFFFBFFF9FFFBFFFBFFFBFFFBF67
:10399000FFBFFFBFFFBFFFBFFFBFFFBFFFDFFFDFF7
:1039A000FFDFFFDFFFBFFFBFFFBEFFBEFFBEFFDFCA
:1039B000FFDFFFBFFFBFFFDFFFDFFFBFFFBFFFBFB7
:1039C000FFBFFFBFFFDFFFDFF7BFF7BFF7BFF7BEE8
:1039D000FFDFF7BEF7BEFFDEFFDEF7BEF7BFF7BFC4
:1039E000F7BEF7BFF79FF79FF7BFF7BFF7BFF79F88
:1039F000EF9EF79EEF7EF7DFF7BFBE17F7FFEFDF13
:103A0000ADB77C318C73E75DFFFF52CBF7DFEF7E04
:103A1000EF9FEF9FEF9FEF9FEF9FEF9EEF9FEFBE18
:103A2000F79EFFBFF7DFEFBFEF7DEF7EF79EF79EBC
:103A3000F79FEF9EEF9EEF9EEF9FEF9FEF9FE77F39
:103A4000E77FEF9FE77FE77FE75FE73FE77FDF5FA6
:103A5000DF7FDF7FDF5EDF5EDF7FDF7FDF7FD73E01
:103A6000D73ED73ED73EDF5EDF5EDF5EDF5FDF5FE4
:103A7000D73ED73ED73ED73ED71ED71ED71ED71E1E
:103A8000D73ED73DD73ED71ED71ED73ED73ED73ECF
:103A9000D73DDF7EDF5ED73ED73ED73EDF5ED73EE7
:103AA000D73ED73ED73ED73ED73ED71DCEFDD71DFA
:103AB000D71DD6FDCEFDCEFDCEDCCEDCCEDDCEBD1F
:103AC000CEBDCEBCCEDDC6DDC6DCC69CC69CC6BCAB
:103AD000C6BDC6BCC6BCC69CC69CC67CBE7BBE7CE6
:103AE000BE7CBE5CBE7CBE7CBE7CBE7CBE7CBE7B27
:103AF000BE5BBE5BBE5CBE5CBE3BB63BB63BB63B94
:103B0000B61BB61BB61BB61BB61BB61BB61BB5FA4F
:103B1000ADFAB5FBADFAB5FBADFAADDAADFAB5FB72
:103B2000B5FBB5FBB5FBB5FBB5FBADDAADFAADDA70
:103B3000ADDAADDAADDAA5B9A5B9A5B9A5BAA5B919
:103B4000A599A599A59AA59AA599A599A5799D79CB
:103B5000A599A599A599A599A5999D79A5999D79C5
:103B60009D799D79A5999D589D589D591944FF3C73
:103B70007BCF00000000FF3CFF3CFF3CFF3CFF3CD4
:103B8000FF3CFF3CFF3CFF3CD6DCD6DCD6DDD6FD5F
:103B9000FF3CFF3CFF3CFF3CDF1ED6DDD6DDD6FD03
:103BA000FF3CFF3CFF3CFF3CFF3CD6FDDEFDDF3D24
:103BB000FF3CFF3CFF3CFF3CEF7FEF7FE77FE77E72
:103BC0007BCF00000000FF3C7BCF00000000FF3CEB
:103BD0007BCF00000000F79EF7BDF7BDF7BEF7BE34
:103BE000FF3CFF3CFF3CFF3CF7BFF7BFF7BFFF3C8C
:103BF000FF3CFF3CFF3C7BCF00000000F7BFF7BF5E
:103C0000F7BFF7BFF7BFF79FF79FF7BFF7BFF79F64
:103C1000F79FF7BFF7BFF7BFF7BEF7BEF7BFF7BF16
:103C2000F7BFF7BFF7DFF7DFF7DFF7DEFFDEF7BE3F
:103C3000FFBEFFDFFFBEFFBEFFBEFFBEF7DFFFDF41
:103C4000FFBEFFBFFFBEFFBEFFBFFFDFFFDFFFBF47
:103C5000FFBEFFDFFFDFFFDFFFDFFFDFFFDFFFDF95
:103C6000FFBFFFDFFFDFFFDFFFDFFFDFFFDFFFBEA5
:103C7000FFBEFFBEFFBEFFBFFFBFFFBFFFBFFFBF57
:103C8000FFBEFFBEFFDFFFDFFFDFFFDFFFDEFFDE88
:103C9000FFDFF7BEF7BEFFDFFFDFFFBFFFBFFFDFC6
:103CA000FFDFFFDFF7BEF7BEF7DEF7DEF7BFF7DFB8
:103CB000F7DFF7DFF7DFEFBFEFBFE79FEF9FEF9F84
:103CC000EF9FEF9EEFBFEFBFEF9EF7BFEF9EE75D69
:103CD000EF9E94F48472AD77E75EE75DE77EE75E82
:103CE000E77EE75EE77EEF9FEFBFEFBFEF9FEF9FBF
:103CF000EF9EF79EFFBEF7BEEFBEEF9EEF9EEFBFBB
:103D0000EF9EEF9EEF9EEF9EEF9EEF9EEF9FEF9F49
:103D1000EF9FE79FEF9FEF9FEF7FEF7FEF7FE77FC3
:103D2000E75FDF5FDF5FE77FE77FE75EE75EE75E36
:103D3000DF7EDF5EDF5EDF5EDF5EDF5EDF5EDF5E7B
:103D4000DF3ED73EDF3ED73ED73DD73DD73DD73EBE
:103D5000CF3ED73ED71ED71ED71ED6FED71ED71EA4
:103D6000D71ED73EDF5EDF5EDF5EDF5EDF5EDF5EDB
:103D7000DF3EDF5EDF5EDF5EDF5EDF5EDF3ED73EC3
:103D8000D75DD73DD73DCF1DCEFDCEDDCEFDCEDDFF
:103D9000CEDECEBCCE9CCEDCCEDCC6BCC6BCC6BCA9
:103DA000C6BCC6BCC6BCC69CC69CC69CC69CC67CC3
:103DB000C67CC67DC67DC67CC67CBE7CBE7BBE7B0B
:103DC000BE5CBE5CBE3CB63CBE3CBE3BB63BB63BFE
:103DD000B63BB63BB61BB61BB61BB61BB61BB61B1B
:103DE000B61AADFAADFAADDAADFAADDAADFAADFAB2
:103DF000ADDAADDAADDAADDAADDAADBAADDAADBACB
:103E0000A5BAA5B9ADDAA5BAA59AA59AA59AA59A13
:103E1000A599A599A599A599A599A579A579A599F2
:103E2000A579A599A579A5799D79A5999D99957863
:103E30009D999D999D799D599D799D799D581123B5
:103E4000FF3C7BCF00000000FF3C7BCF7BCF7BCFD4
:103E50007BCF7BCF7BCF7BCF7BCF7BCFDF1DDEFDCF
:103E6000FF3CFF3C7BCF7BCF7BCF7BCFEF9FDF3E09
:103E7000FF3CFF3C7BCF7BCF7BCF7BCF7BCFE77FF4
:103E8000FF3CFF3C7BCF7BCF7BCF7BCFDF3DDF1D7C
:103E9000E77EE75E00000000FF3C7BCF00000000F3
:103EA000FF3C7BCF00000000F7BEF7DEFFDFF7BE70
:103EB000FF3CFF3C7BCF7BCF7BCF7BCFEFBFFF3C7B
:103EC000FF3C7BCF7BCF7BCF7BCF00000000F7BFD9
:103ED000F7BFF7BFF7BFF7BFF7BFF7BFF7BFF7BF32
:103EE000F7BFF7BFF7BFF7BFF7BFF7BFF7BFEF9E4B
:103EF000EF9EF79EF79EF79EF7BFF7BFF7BEF7BEA0
:103F0000F7BFFF9EFFBEFFBEFFBEF7BEF7BEF7DEE8
:103F1000F7DEF7BEF7BEFFBEFFBEFFBEFFDFFFBF8F
:103F2000FFBFFFBFFFBFFFBFFFBFFFBFFFBFFFBFA1
:103F3000FFBFFFBFFFBFFFBFFFBFFFBEFFBEFFBE94
:103F4000FFBEFFBFFFBFFFBFFFBFFFBFFFDFFFDF42
:103F5000FFDFFFDFFFDFFFDFFFDFFFBEFFBEF7BEDC
:103F6000F7BEF7BEF7BEF7BEFFBFFFBFFFDFFFDF45
:103F7000F7BEFFDFFFDFF7BEF7BEEFBEEF9EF7BF76
:103F8000EF9FEFBFEFBEEFBFEFBFEFBFEF9EEF9E24
:103F9000EF9EEF9FEF9EEF9EEF9EF7FFE77EEF9F76
:103FA000E75EE75ED6FDC65B8C94DF1EDF3DF7DF84
:103FB000E75EDF3DEF7EEF9FEFBFE79FE77EE75EC7
:103FC000E79FEF9EF79EF77EEF9EEF9EEF9FEF9F9E
:103FD000EF9FEFBFEFBEEF9EEF9EF79EF79EEF9E27
:103FE000EF9EE77FE77FE77EE77DEF9FEF7FEF7F45
:103FF000E75FE75FE79FE79FE77EE77FE79FE79F52
:10400000E79FE79FE79FE77EE75EE77EE75EE75E85
:10401000E75EE75EE75EE75EDF5EDF5EDF7EDF5E78
:10402000DF5ED73ED73EDF3EDF3ED6FEDF1ED6FE4A
:10403000D71ED71ED71DD73EDF5EDF5EE75EE75E89
:10404000E75EE75EE75EDF3EE75EE75EE75EE75E70
:10405000E75EDF7EDF7EDF5EDF3EDF3EDF3EDF1ED0
:10406000DF1ED6FEDEFDDF1DD71DD6FDCEDCC6DC95
:10407000C6DCC6DCC6DCC6BBC69BC69CC69CC69C52
:10408000C69CBE7BC67CBE5CBE7CBE7BBE7CBE5B73
:10409000BE5BBE5BBE5CBE5CBE3CB63BB63BB63BED
:1040A000BE5CBE5CB63BBE5CBE5CBE5CB61BB63BDB
:1040B000B61BB63BB63BB63BB61BB5FBB5FBADFA84
:1040C000ADDAADDAADDAADDAADFAADDAADDAADBAB8
:1040D000ADBAA5B9A5B9A5B9A5B9A5BAA5B9ADBADD
:1040E000A5BAA599A5BAA579A599A579A5799D7926
:1040F000A599A599A579A579A5799D79A5799D9980
:104100009D999D999D999D999D79A599A599A59907
:104110000904FF3C7BCF00000000FF3C7BCF000088
:10412000000000000000000000000000000000008F
:10413000AD9784317BCF7BCF0000000000000000F2
:10414000DF3DFF3C7BCF7BCF000000000000000084
:104150000000FF3C7BCF7BCF000000000000000090
:10416000E77EE77EEF9FFF3CFF3C7BCF7BCF0000ED
:104170000000FF3C7BCF00000000E75DE73DE75E0D
:10418000EF7FFF3C7BCF7BCF0000000000000000F2
:10419000FF3C7BCF7BCF0000000000000000000050
:1041A000EF9EF79EF7BFF7BFF7BFF7BEF7BEF7BEAC
:1041B000F7BEF7DEF7DEF7BEEFBEEFBEF7BFF7BF25
:1041C000F7BFF7BFF7BFF7BFF7BFF7BFF7BFF7BF3F
:1041D000F7BFF7BFFFBFF7BFF7DEF7DEF7DEF7DEAB
:1041E000F7DEF7DEF7DFF7BEFFDFFFDFFFDFFFDF22
:1041F000FFBFFFBFFFBFFFBFFFBFFFBFFFBFFFBFCF
:10420000FFBFFFBFFFBFFFBFFFBFFFBFFFBEFFBEC0
:10421000FFBEFFBEFFBEFFBFFFBFFFBFFFBFFFDF91
:10422000FFDFFFDFF7DEF7BEFFDFFFBFFFBEFFBE32
:10423000F79EEF9FF7BFF7BFF7BFF7BFF7BFFFDFEF
:10424000FFBFF7BEF7BEF7BEF79EF79EEFBEEF9E2D
:10425000EF9FEFBFF7BFF7BFF7BFEF9FEF9FEFBE37
:10426000EFBEEF9EEF9EEF9EEF9EE79EEFBFDF1C3F
:10427000E71DD6BBE75EC67BB5D994D5CEBCB5B835
:10428000CE9BF7FFEF9FEF7EEF7EE77EE77FE77F36
:10429000E79FE79FE79FE77FE75EDF7EE79EEF9F71
:1042A000EFBFEF9FEFBFE79EE79EEF9EF79FF79F61
:1042B000F79EEF7EEF9FE77FEFBEEF9EEFBFEF9F92
:1042C000EF9FEF7EE77EE79EE79EEF9FEF7FEF7E1B
:1042D000EF7EEF7EE79FE77EE79EE77EE79EE77E45
:1042E000E77EE77EE77EE75EE75EE75EE75EDF5E4E
:1042F000DF5EE77FDF5EE75EE75EDF3EDF3EDF3EFD
:10430000D73ED71DD73DD73DDF5DE75EE77EE77E31
:10431000E77EE77EE77EE77EE75EE77EE77EE77E95
:10432000E77EE75EE75DE75EE75EE73EE73EE77D67
:10433000E75EE75EE75EE73EE73EDF3DDF3DD71D38
:10434000D6FDCEDCD6FDD6FDCEDCCEDCCEDCC6BCCA
:10435000C6BCC6BBC6BBC6BCC69CC69CC69CC67CEF
:10436000C67CC69CC69BBE7BC69CBE7CC67CC67CEF
:10437000C67CBE7CBE5CBE7CBE5CBE5CBE5CBE5C05
:10438000B63BB63BB63BB63BB61BB61BB5FBB5FB67
:10439000B61BB5FBB5FBADFAADFAADFAADDAADFAC9
:1043A000ADFAADDAADDAADDAADDAADDAADD9A5D9BF
:1043B000ADD9ADD9A5BAADBAA5BAA5BAA5BAA599D0
:1043C000A599A599A599A599A599A5999D79A59925
:1043D000A579A579A579A579A5799D799D799D7905
:1043E0009D791926FF3C7BCF00000000FF3C7BCF6E
:1043F00000000000FF3C7BCF00000000FF3C7BCFB3
:10440000000000004A88FF3C000000007BCF7BCF0B
:1044100000000000FF3C7BCF00000000FF3C7BCF92
:1044200000000000FF3C7BCF000000007BCF7BCF73
:1044300000000000EF9FFF3CFF3C7BCF7BCF0000E4
:104440000000F79EFF3C7BCF00000000F7BFE7BEF7
:10445000EFDFEFDFFF3C7BCF00000000F7DFEFBFB7
:10446000000000007BCF00000000FF3C7BCF00007D
:104470000000DF3DE79FEFBFEF9FEFBFEFBFEFBF54
:10448000F7DFF7DFFFFFF7DFF7DFF7BFF7DFF7BF94
:10449000F7BFFFDFFFDFF7BFEF9EEF9EEF9EF7BE98
:1044A000F79EF7BEF7BEF7BEF7BFF7BFF7DFF7DF40
:1044B000F7DFF7BFFFDFFFDFFFDFFFBFFFBFFFBF9C
:1044C000FFBFFFDFFFBFFFBFFFBFFFBFFFBFFFBFDC
:1044D000FFBFFFBFFFBFF7BFF7BFF7DFF7DFF7BFD4
:1044E000F7BFF7BFEF9EEF7EF7BFF7BFF7BFF7DF6E
:1044F000F7BFF7BFF7BFF7BFF7BFF7BFF7BFEF9F34
:10450000EF9FF7BEF7BEF7BEF7DFF7BEF7BEF7BE09
:10451000FFDFFFDFFFBEFFDEFFBEFFBEFFBEFFBE51
:10452000FFBEF7BFF7BFF7BFF7BFF7BFF7BFF7BFD4
:10453000EFBEEFBEEFBEEFBEEFBEEFBFEF7EE77E9A
:10454000D6DCE79FE79FE73EBE19B5D98CB4EFBF35
:10455000E75FEF7FF7DFDF3CEF9FEF9FEF9FEF9F7E
:10456000EF9FEF9FE77FDF7FDF7FDF5EDF7FE79FEC
:10457000E79FE77EE77EDF5EE75EEF7EEF9EEF9EE2
:10458000E79FE79FEFBFEF9EEF9EE77FEF7FEF7F15
:10459000F79FF79FEFBEEF9EEFBEEFBEEFBFEFBFFF
:1045A000EF9FEF9FEF9FEF9FEF9FEF9FE79FEF9FA3
:1045B000EF9FE77FE77FE77FE79FE77EE77EE77E86
:1045C000E77EE77EE77EE77EE77FE77EE75FE75F00
:1045D000E75FDF7FDF7FDF7FE77FE77FDF7EDF7EF5
:1045E000E77EE77EE77EE77EE75EE75EE75EDF7E0B
:1045F000DF7EDF7EDF5EE75EE75EE75EE75EE75E6B
:10460000E75EE75EE73EE75EE75EE75EDF5EDF5EB2
:10461000D73DD71ED71ED71ED71ED71DD71DD6FDF7
:10462000CEDDCEBDD6BCCEBCCEBDC6BDC69DC69D64
:10463000C69CC69CC69CC69CC69CC69CC69CC69C6A
:10464000C67CC69CBE7CBE7DBE7CBE7CBE5CBE5CA9
:10465000BE7CB65BB65BB63BB63BB61BB61BB61BA9
:10466000B63BB61BB61BB61BB61BB5FAADFBADFB16
:10467000ADDAADDAADDAADDAADDAADDAADDAADDA02
:10468000ADBAADDAADBAADBAADBAADBAADBAADBAD2
:10469000A599A599A599A579A599A579A579A579AA
:1046A000A579AD79A5799D799D599D799D799D597A
:1046B0009D599D5852CCFF3C7BCF00000000FF3C31
:1046C0007BCF00000000FF3C7BCF00000000FF3CE0
:1046D0007BCF00000000FF3CFF3C7BCF7BCF000086
:1046E000000000000000FF3C7BCF00000000FF3C0A
:1046F0007BCF00000000FF3C7BCF000000000000EB
:10470000000000000000FF3CFF3C7BCF7BCF00009F
:104710000000EF9EF7BFFF3C7BCF00000000F7BF1B
:10472000F7BFF7DFF7BFFF3C7BCF00000000F7BF0C
:10473000F7DFF7BFFF3C7BCF00000000FF3C7BCFE3
:1047400000000000F7DFF7DFEF7EF7BFF79EF7BF4F
:10475000F79EF7BFF7BFF7BFF7BFF7BFFFDFF7DF82
:10476000FFDFFFDFF7BFF7BFF7BFF7BFF7BFF7BF49
:10477000F7BFF79EFFDFF79EF79EF7BEF7BEF7BFC6
:10478000F7BFF7BFF79EF79FF7BFF7BFFF9FFF9FEA
:10479000FFBFFFBFFFBFFFBFF79FFFBFFFBFFFBF51
:1047A000FFBFFFBFFFBFFFBFF7BFF7BFF7DFF7DFF9
:1047B000F7BFF7BFF7BFF7BFF7BFF7BFF7BFF7DF29
:1047C000F7BFF7BFF7BFF7BFF7BFF7BFF7BFF7BF39
:1047D000F7BFF7BFF7DFF7DFF7DFF7DFF7BEFFDF82
:1047E000FFDFFFDFFFDFFFDFFFDFF7BEFFBEF7BE4C
:1047F000FFBEF7BEF7BFF7BFF7BFF7BFF7BFF7BF03
:10480000F7BFF7BFF7BFF7BFEF9FEFBFEFBFEFBF38
:10481000E77EDF5EE79FEF9FEF9FA536ADB8CEBB8B
:10482000E77EEF7EEF7ECEBBF7FFEF9FEF9FEF9F20
:10483000EF9FEF9FEF9FEF9FEF9FEF9FEF9FEF9F08
:10484000EF9FEF7FEF5EEF7EE75EE79FE79FE77EFC
:10485000DF5EDF5EE77FEF9FF7BFF7BFEF9EEF9E64
:10486000F7BFF7BFF7BFF7BFF7BFF7BFF7BFF7BF98
:10487000F7BFF79FF7BFF7BFF7BFEF9FEF9EEFBF01
:10488000EF9FEF9FE77FE75EEF9FEF9FE77FE79F59
:10489000E79FE79FE79FE77FE77EEF9FE77EEF7F5A
:1048A000E75FEF7FE77EE79EEF9FEF7EEF7EE79F7C
:1048B000E79FE77FE77FE77EE77EE77EEF7EE77EA5
:1048C000E79FE79FE77FE77EE75EE75EE75EE75EFD
:1048D000E75EE75EE75EE75EE75EE75EE77EDF5E98
:1048E000DF3DD73DDF3ED71ED71ED71ED71DD71DB4
:1048F000D6FDD6FDCEDDCEDCCEBCCEBCC69CC69CE5
:10490000C69CC69CC69CC69CC67CC67CC69CC69CD7
:10491000C67CBE7BBE7CBE5CBE5CBE5BBE5CBE5C61
:10492000BE3BB65CB65CB63BB61BB61BB61BB61B35
:10493000B61BB61BB61AB61AB61AADFAADFAADFA70
:10494000ADFAADFAADDAADDAADDAADDAADDAADDAEF
:10495000ADDAADBAADDAADBAADBAADBAADBAADBADF
:10496000ADBAADBAADBAA59AA599A599A579A5791B
:104970009D799D79A5599D599D799D799D799D58E0
:104980009D589D599D582145FF3C7BCF000000005C
:10499000FF3C7BCF00000000FF3C7BCF000000000D
:1049A000FF3C7BCF00000000FF3C7BCF7BCF0000B3
:1049B00000007BCF00000000FF3C7BCF0000000028
:1049C000FF3C7BCF00000000FF3C7BCF00000000DD
:1049D000FF3CFF3CEF9FEF9FFF3C7BCF7BCF000076
:1049E0000000EFDFEFBEEFBFFF3C7BCF0000000019
:1049F000F7BFF7BFF7BFFF9FFF3C7BCF0000000072
:104A0000FF3CFF3CFFBEFF3C7BCF00000000FF3CB3
:104A10007BCF00000000F7BEFFDEF79EFFBEF79ED3
:104A2000FFBFFFBFFFBFFFBFF7BFFFDFF7BFFFDF66
:104A3000FFDFFFDFFFDFFFDFFFDFFFBFFFBFFFBFE6
:104A4000FFBFFFDFFFDFFFDFF7BEF7BEF7BFF7BF38
:104A5000FFBFFFDFFFDFFFBFFFBFFFDFFFDFFFDFC6
:104A6000FFBFFFBFFFDFFFBFFFBFFFBFFFBFFFBF36
:104A7000FFDFFFBFFFDFFFBFFFBFF7BFF7BFF7BF1E
:104A8000F7BFFFDFFFDFFFDFFFDFFFDFFFDFFFDF5E
:104A9000FFDFFFDFFFBFFFBFFFBFFFBFFFBFFFDFC6
:104AA000FFDFFFDFFFDFF7BEF7BEF7BEF7BEF7BEE3
:104AB000F7BEF7BEF7BEF7BEFFBFF7BFF7BFF7BF42
:104AC000F7BFFFBFF7DFF79FEF9FEF9FEF9EEFBFAF
:104AD000EF9EEF9EEF9FEF7FEF9FEF7FE77FE79FD8
:104AE000E79FDF7FD73EE77FE77FDF1DE75E9D140F
:104AF000CEBBE77DE73DE75DE77DC659E77EEF9FEB
:104B0000EF9FEFBFEF9FEF9FEF9FF79EEF7EEF9E30
:104B1000F7BEF7BFF7BFFFBEF7BEEF9FEFBFE79F40
:104B2000EFBFE79FE77EEF9FEFBFEF9FEFBFE79EEF
:104B3000EFBEEFBFEFBFF7BFEFBFF7DFF7BFEF9EEF
:104B4000F79FF79FF79FF79FF79FF79FF79FEFBF9D
:104B5000EFBEEF9FEFBFEF9FEF9FEF9FEF9FEF9FA6
:104B6000EF9FEF7FE77FEF9FE75EE75EE75EE75E41
:104B7000E77EE77FEF9FEF7EEF9EEF7EEF7EEF5EBB
:104B8000EF9FEF9FEF7FE77EEF9FEF9FEF9FEF9FFE
:104B9000EF7EE77FE77FEF7FE77EE77FEF9FEF7FA7
:104BA000E77EE75EE75EE75EE75EE75EE73EDF5EE5
:104BB000DF5EDF7EDF7EDF5EDF3ED73DD71DD71DA8
:104BC000D71DD6FDD6FDCEDCCEDCCEDCC69CCEBC61
:104BD000CEBCC6BCC6BCC6BCC6BCBE7CC69CC69D44
:104BE000C67CBE7BBE7BBE7BBE7CBE5CBE5CBE5C50
:104BF000BE5BB63BB63CB63BB63BB5FBBE1BB61B7D
:104C0000B63BB61BB63BB5FAB5FAB5FAADFAADFA96
:104C1000ADDAB61BADDAB5FBADFAADDAADDAADDAC9
:104C2000ADDAADDAADDAADBAADBAADBAADBAADBAEC
:104C3000ADBAADBAA59AA59AADBAA599A59A9D792E
:104C4000A599A5799D799D799D799D799D799D7984
:104C50009D589D599D589D388C93FF3C7BCF0000FB
:104C60000000FF3C7BCF00000000FF3C7BCF00003A
:104C70000000FF3C7BCF000000003A677BCF0000C4
:104C80000000FF3C7BCF0000000008E47BCF000069
:104C90000000FF3C7BCF00000000DF1C7BCF00004A
:104CA0000000FF3C7BCF7BCFEFDFFF3C7BCF0000E2
:104CB0000000FF3CFF3CEF9EF7BFFF3C7BCF0000B6
:104CC0000000FF3CFF3CFF3CF7BFF7BF7BCF00007D
:104CD0000000FF3C7BCF7BCFFFDF7BCF00000000DD
:104CE000FF3C7BCF00000000F7DEF7DFF7BEFFBF21
:104CF000FFBEFFBEFFBEFFBFFFDFFFDFF79EFFDF90
:104D0000FFBFFFBFFFBFFFBFFFBFFFBFFFBFFFBFB3
:104D1000FFBFFFBFFFBFFFDFFFDFFFDFFFDFFFDF03
:104D2000FFDFFFDFFFDFFFDFFFFFFFFFFFDFFFDF53
:104D3000FFDFFFDFFFDFFFDFFFDFFFFFFFFFFFDF43
:104D4000FFDFFFDFFFDFFFDFFFDFFFDFFFBFFFBFB3
:104D5000FFBFFFBFFFDFFFDFFFDFFFBFFFBFFFBF03
:104D6000FFBFFFBFFFBFFFBFFFBFFFBFFFBFFFBF53
:104D7000FFBFFFBFFFBFFFBFFFBEFFBEFFBEFFBF46
:104D8000FFBFFFDFFFDFF7BEF7BEF7BFF7BFF7BF1D
:104D9000F7DFF7BFF7BFEF9FEF9FEF9FE77EEF7E55
:104DA000EF9EEF9EEF9EEFBFF7BFF7BFF7BFEFBFDE
:104DB000EFBFEFBFEFBFEFBFDF3EEFBFC65A7BF1E4
:104DC000AD979D15EF9FE75EEF9FE77DEFBEEFBFCD
:104DD000EF9FEF9FE77EE77EEF9FEF9FEF9EEF9EB7
:104DE000EF9FEF9FEFBEF7BEF7BEF7BEEFBEF7BF78
:104DF000EF9EF7BFF7BFF7BFF7BFEF9EE79FE79FB5
:104E0000E79EE79FE79EEF9FEFBFEF9FF7BFEF9F04
:104E1000EF9FEF9FEF9FF7BFF7DFF7DFF7BFF7BF1A
:104E2000F7BEEFBEF7BFF79EF79EEF9EEF9FEF9F97
:104E3000EF9FEF9FEF9FEF7FEF9FEF7FEF7FEF7F82
:104E4000EFBEEF7EEF9FEF9FEF9FEF9FEF7FEF7F34
:104E5000EF5EEF7FEF7FEF7FEF7FEF9FEF9FEF9FA3
:104E6000EF9FEF7EEF9FEF9FEF7FEF9FEF7FEF9F33
:104E7000EF9FEF7FE77EE77EE75EE77EE77EE77EF8
:104E8000E77EE77EDF7EDF7EE77EDF5EDF5EDF5E82
:104E9000DF5DDF5DDF3DDF3ED71DD73DD71DD6FD92
:104EA000CEBCCEDCCEDCC6BCC6BCC6BCC69CC6BCBA
:104EB000C69CC6BCC6BBC6BCC69BBE7BBE5BBE5C3E
:104EC000BE5BBE5CBE3BB61AB61AB5FABE1A94B546
:104ED000ADFAB61AB61BB63BB61BB61BB61BB61A56
:104EE000ADFAADFAADFAB61AADD9ADDAADDAADDAE2
:104EF000ADBAADBAADDAADBAADBAADBAA599A599AC
:104F0000A599A599A599A59AA59AA599A5BAA579AE
:104F1000A5999D79A5799D799D799D799D799579B9
:104F20009D799D589D599D3895384A8C3A2A7BCF5A
:104F30000000000010E47BCF00000000530E7BCF88
:104F40000000000053087BCF000000003A292986AA
:104F5000000000007BCF7BCF000000002187196696
:104F6000000000007BCF7BCF00000000EF7EEFBF92
:104F7000000000007BCF7BCF00000000EF9F7BCFC5
:104F8000000000007BCF7BCF7BCFF79FF79F7BCFCD
:104F9000000000007BCF7BCF7BCF7BCFF7BFF7BF7D
:104FA000000000007BCF7BCF00000000F7BF0000B7
:104FB00000007BCF7BCF00000000F7BFF7BFF7BF3B
:104FC000FFBFF7BFF7BEF7BEFFBEF7BEFFBEFFBE17
:104FD000FFBEFFBEFFDEFFBEFFBEFFBEFFBEFFBFC8
:104FE000FFBFFFBFFFBFFFBFFFDEFFDEFFDFFFDE54
:104FF000FFDFFFDFFFBFFFFFFFBFFFFFF7BFFFFFC9
:10500000FFDFFFDFFFDFFFFFFFDFFFDFFFDFFFFF70
:10501000FFDEFFDFFFFFFFDFFFFFFFDFFFDFFFDF61
:10502000FFDFFFDFFFBFFFDFFFDFFFDFFFBEFFBEF2
:10503000FFBEFFBEFFBEFFBEFFBFFFBFFFBFFFBF84
:10504000FFBFFFBEFFBEFFDEFFDEFFDFFFDFFFDFD4
:10505000FFDFFFDFFFDFFFBEF7BEF7BEF7BFF7BF23
:10506000F7BFF7BFF7BFF7DFF7DFF7BFF7DFEFBF38
:10507000EF9EEF9EEFBEEF9EF79EEF9EF79EF79E90
:10508000F7BEF7BFF7BFEF9EF7DFCE9BE77EB59782
:10509000CE5AAD77B5FAE73EC65BE73EEFBFE77E97
:1050A000E79FEF7FEF9FEFBFEF9FEF9FEF9FE79FA0
:1050B000E77EEF9FEF9FEFBFEFBEF7DEF7BEF7DEB5
:1050C000FFBEF7BEFFDEFFBEF7BEF7BEEF9FEFBF2E
:1050D000E79FE79FE79FEFBFEF9FEF9FEF9FE77F80
:1050E000E77EEF9FEFBFEF9FEFDFEFBFEF9FF79EF2
:1050F000EF9EEF9EEFBEF7BFF79FF7BFF7BFF7BF7B
:10510000F7BFF7BFEF9FEF9FEF9FF79FEF9FEF9FD7
:10511000EF9FEF9EEF9EEF9FEF9FE79FEF9FEF9F29
:10512000EF7FEF7FF79FF79FEF9FEF9FEF7FEF7F7F
:10513000EF9FEF9FEF7FEF7FEF7FEF7FEF7EE75EE9
:10514000E75EE75EE77EE75EE73EE75EE75EE75E37
:10515000E75EE75EDF5EDF5EDF5EDF7DDF5DDF5D3A
:10516000DF5DDF5DDF5DDF3DDF3DDF1DD73DD73D2F
:10517000D71DDF1ED71DD71DD71DD6FDD71DD6FCC9
:10518000C69BCEFDCEDCCEBBCEBCCEBCC69CC67B09
:10519000C69CBE7CC69CC69CBE7BBE7BBE3ABDFA8E
:1051A000B5F99D57C67CB5FAB63BB61BB61BB61B08
:1051B000B61BB61BB61BADDAADDAADFAADDAADDAB9
:1051C000ADFAADDAADDAADDAADBAADBAADBAADBA07
:1051D000ADBAADBAADBAA5B9A599A599A5BAA59923
:1051E000A599A5999D79A5799D799D799D799D79B7
:1051F00095789D799D589D799D799D592187634E1C
:10520000A55600000000C69B2146000000001105C5
:105210004AC9000000004AA721420000000021877F
:1052200010E429C700000000000000000000FF3C5F
:10523000FF3C3A8A00000000000000000000EFDFA1
:10524000F7BFF7BF0000000000000000EF9EEF9ED8
:10525000F7FF000000000000000000000000EF9FCA
:10526000EF9E0000000000000000000000000000B1
:10527000EFBFEF9E0000000000000000FFDFFFDF37
:10528000FFDF00000000000000000000F79EF79F15
:10529000F7BFF7BFF7BFF7BEFFBFFFDFF79EFFBF48
:1052A000FFDFFFDFFFDFFFBFFFDFFFDFFFBFFFBF6E
:1052B000FFDFFFDFFFDFFFDFFFDFFFDFFFDFFFBF1E
:1052C000FFDFFFDFFFFFFFDFFFDFF79EF7FF73EF7B
:1052D000F7DFE71CF7BFFFFFFFDFFFDFFFDFFFDFC9
:1052E000F7BEFFFEFFDFFFFFFFFFFFFFFFFFFFDF58
:1052F000FFDFFFDFFFFFFFDFFFDFFFDFFFDFFFDF9E
:10530000FFDFFFBEFFBEFFBFFFBEFFBFFFBFFFBE91
:10531000F79EF79EFFDFFFDFFFBFFFBFFFFFFFDF4F
:10532000FFDFFFDFFFDFFFBEFFBEFFBEFFBEF79E5A
:10533000F79EF79EFFBEFFBEF7BFF7DFF7DFF7DF91
:10534000F7DFF7DEF7BEF7BEF7BEFFBFFFBFFFBF59
:10535000FF9FFFBFF7BEF7BEF7FFD6FCF79EF7DF54
:10536000D6BBDEDCBE19AD97EF7EF7BFB597EFBFBA
:10537000EFBFEFBFEFBFEFBFEFBFEFBFEF9FE77E26
:10538000EF9FEFBFEFBFEFBFEFBFEF9FEF9FF79E26
:10539000F77DEFBDF7BEF7DFF7BFF7BFEF9EEF9EDC
:1053A000E77FEF7FE79EE79EE79FEFBFEFDFE7BF77
:1053B000E79FEFBFEF9FE79FEFBFEFBFEF9FEF9F2D
:1053C000EFBFEFBFEF9EEF9EEF9FEF9FEF7EEF9F50
:1053D000EF9FEFBFEFBFEF9FEFBFEFBFF7BFEFBF95
:1053E000EFBFEFBFEFBFEFBFEFBFEFBFEFBFEFBF4D
:1053F000EF9FEF9FEF9FEF9FEF9FEF9FEF9FEF7F5D
:10540000EF7FEF9FEF9FEF9FEF9FEF9FEF7EE77E96
:10541000EF7EF79FEF7FE75EE75EE77FE77FE77F5F
:10542000E77FDF5EDF5EDF5EDF5FDF5FDF7EDF5E49
:10543000DF5DDF3DDF5EE77EE77EE77EDF5EDF5E2E
:10544000E77EE77EDF5ED75DD73DDF3DDF1DDF5EB8
:10545000DF3EAD98BE3BBE5AD6FDD6DDD6DDCEBC16
:10546000CEBCCEDCCEBCD71EDF5EC6BCC6BCC69CE6
:105470008C948CB56BB1CE9CBE5BC69CC67CBE5C6E
:10548000B63BB63BB63BB63BB63BB63BB63BB61BB4
:10549000B61BB63BB61BB61BB5FBB5FBB5FBB5FBE8
:1054A000ADDAADDAADDAADDAADBAADDAADDAADDAE4
:1054B000ADDAADBAADBAADDAADBAADBAA5DAA5B965
:1054C000A5B99D999D999D789D999D799D59322960
:1054D00031E8218610C3112500624AAB3A281965CC
:1054E00008C421854AC83A263A265B494AC73A4742
:1054F0003A6A428B94F521661946216752ED21677D
:10550000428C7BCF7BCFFF3CFF3C7BCF0000000079
:10551000E79EEFDFF7BFF7BFCE9973AE7C0FA554C0
:105520008471B5D6E75DEF9EF7BFEFBFEFBFF7DF42
:10553000F7BFEFBFF7DFF7DFF7BFF7BEFFBFFFBF74
:10554000FFDFF7BEF7BFF7BFF7BFF7BFF7DFF7BF64
:10555000F7BFF7BFF7BFF79EEF9EEF7EEF9EEF7EA0
:10556000EF7DE77DEF7EEF7EEF9EEF9EEF9FEF9F5B
:10557000F7BFF7BFEF9FF7BFF7BFFFBFFFBFFF9FAB
:10558000FF9FFFBFFF9FFFBFFF9FFF9FFFBFF7BFB3
:10559000F7DFF7DFF7DFFFDFE75C73AC5B2942C7BC
:1055A00042A73A4721864A8A8451F7DFFFFFFFFF6F
:1055B000FFFFF7DED6DAFFFFF7FFF7FFF7DFFFDFCA
:1055C000FFDFF7DFFFDFFFDFFFDFFFBFFFBFFFDF33
:1055D000FFBEFFDFFFBFFFBFFFDFFFBEFFBEFFBE9F
:1055E000FFBEFFDFFFDFFFBFFFBFFFDFFFDFFFFF0C
:1055F000FFFFFFDFFFDFFFDFFFDFFFDFFFDFFFDF9B
:10560000FFDFFFDFFFDFFFDFFFDFFFDFFFBEFFDFCB
:10561000FFBEFFDFFFBFFFBEFFDFFFDFFFDEFFDEFE
:10562000FFBEFFBEFFDFFFDFF7DEF7DF9D15EFBE3A
:10563000F7BFE73D94B4A535DF1CF79EF79E83F0D6
:10564000F7BEF7DEF7BEFFDFF7BEF7BEF7DFF7BF47
:10565000F7DFF79FF7BFEFBFEFBFE7BEE7BFEFBFD3
:10566000EFBEF7BFEFDFEFBEEFBFE79FEF9FE79E15
:10567000EFBEEF9EEFBFE7BEE7BFE7DFE7BFE79F05
:10568000EFBFEF9FEFBFEFBFEFBFEFBFF7BFF79FDA
:10569000F79FF7BFF7BFF7DFF7DFF7BFF7BFF7BF3A
:1056A000EF7FEF9FEF9FEF9FEF9FEF9FEF9EEFBF8B
:1056B000EFBEEFBEEF9EEF9FEF9FEF7EEF9FEF9F5E
:1056C000EF9FEF9FEF9FEF9FE7BFE7BFE7BFE7BF0A
:1056D000EF9FEF9FEF9FEF9FEF9FEF9FEF9FEF9F5A
:1056E000EF9FEF7EEF7EE75EE77FE77FDF7FDF7F85
:1056F000DF7FDF7FDF5EDF7EDF3EDF3EDF3EDF3EE0
:10570000DF5EDF3EDF3EDF5ED75ED75EDF5EDF5E01
:10571000DF3DDF3DDF5DDF3DD75DD75DDF7DE75DF1
:10572000DF3DDEFD8C73C63BCE9CCEBCCEDDCEDD38
:10573000C69CCEDDD6BDD6BDC67BBE1A84B4B61916
:105740009D5694F59CF64A8C6BB1A5989537C67C0E
:10575000C67CBE7CBE5CB63BBE3BBE5CBE3BB61BE5
:10576000B63BB63BB61BB61BB63BB61BB61BB61B51
:10577000B61BB61BB61AB5FAB61BADFAADFAADFA42
:10578000ADDAADDAADDAADFAADD9ADDAADDAADDAC2
:10579000ADD9ADB9A5B9ADB9A5B9ADBAA599A57938
:1057A000112419661945112421A621A7214508A312
:1057B00008E310E4112542CA29A54AA95309532A2E
:1057C000532B11449D561926088363901947DF1CFB
:1057D00029C8194629A8000000007BCF7BCF000014
:1057E0000000CEBA636DBE17BDF76B6D5ACA422773
:1057F000298429643A0742487C30F7FFE79EEFBFCF
:10580000EFBFEFBFDF3DEF7EF7BFF7BFF7BFFFBFD3
:10581000FFBFF79EEFBEF79FF7BFF7BFF7BFF7BF1A
:10582000F7BFF7BFF7BFF7BFF7DEF7DEF7BEF7BE8C
:10583000F7DEF7DEF7DEF7DEF7DFF7BFF7DFF7BFFC
:10584000F7BFFFDFFFDFFFDFF7DFF7DFFFDFFFBFC0
:10585000F79FF79FFF9FF79FFFBFFFBFFFDFFFDFB0
:10586000FFDFF7FFC6797C31636D530A5B494AC796
:1058700029E329C52185110419453208ADB7F7FF81
:105880007BF04AAA42A93A6852EB4ACA31E7BE38CD
:10589000F7DFF7BEFFFFF7FFFFFFFFFFFFFFFFFF91
:1058A000FFFFFFFFFFFFFFFFFFDFFFDFFFDFFFDF88
:1058B000FFDFFFDFFFDFFFDFFFDFFFDFFFFFFFFFB8
:1058C000FFFFFFFFFFFFFFFFFFFFFFFFFFFFFFFFE8
:1058D000FFFFFFDFFFDFFFDFFFDFFFDFF79EF79E4A
:1058E000FFDFFFDFFFDFFFDFFFBFFFDFFFFFFFDFC8
:1058F000FFBFFFBEFFBEFFBFF7BEF79DF7DFE75E4E
:10590000C679DF1CCEBB3A09A576F7BEEF9EF7BE7F
:10591000E73DE73CEF9EF7BFFFDFFFDFF7BFF79EF6
:10592000F7DFF7BFF7BFF7BFF7BFF7DFF7DFF7FF27
:10593000F7DFF7DFF7DFEFBFEFBFEFBFEFBFEFBF7F
:10594000F7DFF7DFF7BEF7DEEFBEE79EEFBFE79FBB
:10595000E79FEFBFF7DFF7BFF7BEEFBFF7BFF7BFB8
:10596000F7BFF7BFF7BFF7BFF7DFF7BFF7BFF7BF67
:10597000F7BFF7BFEF9FF7BFF7BFF7BFF7BFF7DF7F
:10598000F7BFEFBFEFBEEFBFF7BFEF9FEF9FEF9FF8
:10599000EF9FEF9FEF9FEF9FEF9FE79FE77EE77EF1
:1059A000E77EE79EE79EE79FE77EE77EEF9FE77E45
:1059B000EF9FEF9FEF9FEF9FEF9FE79FDF7FE79FB7
:1059C000E77FDF3EDF3ED73DDF3DDF5EDF5ED71E98
:1059D000DF3ED71EDF5FDF5FDF5ED73ED71DD73EDE
:1059E000D71DDF5EDF5EDF3DDF3DDF5ED73DD73DAC
:1059F000DF3EDF1DEF7E424B2127C67BC67BBE5BB1
:105A0000BE5BBE5BBE5BBE1ABE3BBE3BC65BADD9DA
:105A1000C6BCADD9A5579D1773F2ADB9BE3BC69CA8
:105A2000BE7CB63BB5FAB61BB61BB63BB63BB63B27
:105A3000BE3BB63BB63BB63BB61AB61AB61AB61A5A
:105A4000ADFAADFAADFAB5FAADFAB5FAB61AADD906
:105A5000ADF9ADFAADF9ADF9ADF9ADD9ADFAADF934
:105A6000ADD9ADD9ADB9ADD9ADD9ADD9ADB9A5998E
:105A7000A5991125196611451966114511041904D6
:105A8000110411241925112519864AAA52CA29A5DB
:105A900021A629E821E729A7194521872167218720
:105AA0001945216608C44AAB2167000000000000C8
:105AB00000006B6D6B6D52684A475ACB4A484227CB
:105AC00039E552C84A6731E63A074269A596BE5A97
:105AD000EFDFEFDFEFDFCEBAF7DFF7BFF7BFEFBFE4
